{
  "contractName": "Fiverr",
  "abi": [
    {
      "anonymous": false,
      "inputs": [
        {
          "indexed": false,
          "internalType": "address",
          "name": "account",
          "type": "address"
        }
      ],
      "name": "AmountChanged",
      "type": "event"
    },
    {
      "anonymous": false,
      "inputs": [
        {
          "indexed": false,
          "internalType": "address",
          "name": "account",
          "type": "address"
        }
      ],
      "name": "BlackListed",
      "type": "event"
    },
    {
      "anonymous": false,
      "inputs": [
        {
          "indexed": false,
          "internalType": "address",
          "name": "account",
          "type": "address"
        },
        {
          "indexed": false,
          "internalType": "uint256",
          "name": "duration",
          "type": "uint256"
        }
      ],
      "name": "MembershipAssigned",
      "type": "event"
    },
    {
      "anonymous": false,
      "inputs": [
        {
          "indexed": true,
          "internalType": "address",
          "name": "previousOwner",
          "type": "address"
        },
        {
          "indexed": true,
          "internalType": "address",
          "name": "newOwner",
          "type": "address"
        }
      ],
      "name": "OwnershipTransferred",
      "type": "event"
    },
    {
      "anonymous": false,
      "inputs": [
        {
          "indexed": false,
          "internalType": "address",
          "name": "from",
          "type": "address"
        },
        {
          "indexed": false,
          "internalType": "uint256",
          "name": "amount",
          "type": "uint256"
        }
      ],
      "name": "PaymentReceived",
      "type": "event"
    },
    {
      "anonymous": false,
      "inputs": [
        {
          "indexed": false,
          "internalType": "address",
          "name": "to",
          "type": "address"
        },
        {
          "indexed": false,
          "internalType": "uint256",
          "name": "amount",
          "type": "uint256"
        }
      ],
      "name": "PaymentReleased",
      "type": "event"
    },
    {
      "anonymous": false,
      "inputs": [
        {
          "indexed": false,
          "internalType": "address",
          "name": "account",
          "type": "address"
        },
        {
          "indexed": false,
          "internalType": "uint256",
          "name": "duration",
          "type": "uint256"
        }
      ],
      "name": "WhiteListed",
      "type": "event"
    },
    {
      "inputs": [
        {
          "internalType": "address",
          "name": "",
          "type": "address"
        }
      ],
      "name": "membership",
      "outputs": [
        {
          "internalType": "uint256",
          "name": "",
          "type": "uint256"
        }
      ],
      "stateMutability": "view",
      "type": "function"
    },
    {
      "inputs": [],
      "name": "owner",
      "outputs": [
        {
          "internalType": "address",
          "name": "",
          "type": "address"
        }
      ],
      "stateMutability": "view",
      "type": "function"
    },
    {
      "inputs": [],
      "name": "renounceOwnership",
      "outputs": [],
      "stateMutability": "nonpayable",
      "type": "function"
    },
    {
      "inputs": [
        {
          "internalType": "address",
          "name": "newOwner",
          "type": "address"
        }
      ],
      "name": "transferOwnership",
      "outputs": [],
      "stateMutability": "nonpayable",
      "type": "function"
    },
    {
      "inputs": [
        {
          "internalType": "uint256",
          "name": "_days",
          "type": "uint256"
        },
        {
          "internalType": "uint256",
          "name": "_amount",
          "type": "uint256"
        }
      ],
      "name": "setCostOfMemmbership",
      "outputs": [],
      "stateMutability": "nonpayable",
      "type": "function"
    },
    {
      "inputs": [
        {
          "internalType": "uint256",
          "name": "_days",
          "type": "uint256"
        }
      ],
      "name": "getCostOfMemmbership",
      "outputs": [
        {
          "internalType": "uint256",
          "name": "",
          "type": "uint256"
        }
      ],
      "stateMutability": "view",
      "type": "function"
    },
    {
      "inputs": [],
      "name": "getCurrentTime",
      "outputs": [
        {
          "internalType": "uint256",
          "name": "",
          "type": "uint256"
        }
      ],
      "stateMutability": "view",
      "type": "function"
    },
    {
      "inputs": [],
      "name": "getSingleMinuteMembership",
      "outputs": [],
      "stateMutability": "payable",
      "type": "function"
    },
    {
      "inputs": [],
      "name": "getSingleDayMembership",
      "outputs": [],
      "stateMutability": "payable",
      "type": "function"
    },
    {
      "inputs": [],
      "name": "getSevenDayMembership",
      "outputs": [],
      "stateMutability": "payable",
      "type": "function"
    },
    {
      "inputs": [],
      "name": "getOneMonthMembership",
      "outputs": [],
      "stateMutability": "payable",
      "type": "function"
    },
    {
      "inputs": [],
      "name": "getSixMonthMembership",
      "outputs": [],
      "stateMutability": "payable",
      "type": "function"
    },
    {
      "inputs": [
        {
          "internalType": "address",
          "name": "_address",
          "type": "address"
        }
      ],
      "name": "isWhitelisted",
      "outputs": [
        {
          "internalType": "bool",
          "name": "",
          "type": "bool"
        }
      ],
      "stateMutability": "view",
      "type": "function"
    },
    {
      "inputs": [
        {
          "internalType": "address",
          "name": "_address",
          "type": "address"
        }
      ],
      "name": "isMember",
      "outputs": [
        {
          "internalType": "bool",
          "name": "",
          "type": "bool"
        }
      ],
      "stateMutability": "view",
      "type": "function"
    },
    {
      "inputs": [
        {
          "internalType": "address",
          "name": "_address",
          "type": "address"
        }
      ],
      "name": "whitelistedPeriod",
      "outputs": [
        {
          "internalType": "uint256",
          "name": "",
          "type": "uint256"
        }
      ],
      "stateMutability": "view",
      "type": "function"
    },
    {
      "inputs": [
        {
          "internalType": "address[]",
          "name": "_users",
          "type": "address[]"
        },
        {
          "internalType": "uint256",
          "name": "_days",
          "type": "uint256"
        }
      ],
      "name": "whitelistUsers",
      "outputs": [],
      "stateMutability": "nonpayable",
      "type": "function"
    },
    {
      "inputs": [
        {
          "internalType": "address[]",
          "name": "_users",
          "type": "address[]"
        }
      ],
      "name": "blacklistUsers",
      "outputs": [],
      "stateMutability": "nonpayable",
      "type": "function"
    },
    {
      "inputs": [],
      "name": "listOfwhitelistedUsers",
      "outputs": [
        {
          "internalType": "address[]",
          "name": "",
          "type": "address[]"
        }
      ],
      "stateMutability": "nonpayable",
      "type": "function"
    },
    {
      "inputs": [],
      "name": "totalBalanceAvailable",
      "outputs": [
        {
          "internalType": "uint256",
          "name": "",
          "type": "uint256"
        }
      ],
      "stateMutability": "view",
      "type": "function"
    },
    {
      "inputs": [],
      "name": "withdraw",
      "outputs": [],
      "stateMutability": "nonpayable",
      "type": "function"
    }
  ],
  "bytecode": "0x60806040526709b6e64a8ec60000600155670214e8348c4f000060025566d529ae9e86000060035566470de4df8200006004553480156200003f57600080fd5b5062000060620000546200006660201b60201c565b6200006e60201b60201c565b62000132565b600033905090565b60008060009054906101000a900473ffffffffffffffffffffffffffffffffffffffff169050816000806101000a81548173ffffffffffffffffffffffffffffffffffffffff021916908373ffffffffffffffffffffffffffffffffffffffff1602179055508173ffffffffffffffffffffffffffffffffffffffff168173ffffffffffffffffffffffffffffffffffffffff167f8be0079c531659141344cd1fd0a4f28419497f9722a3daafe3b4186f6b6457e060405160405180910390a35050565b6127b580620001426000396000f3fe60806040526004361061011f5760003560e01c80639a103b15116100a0578063d8d11f7211610064578063d8d11f7214610322578063f2fde38b1461034b578063f4833f4514610374578063fabba5c21461039d578063fb793214146103da5761011f565b80639a103b151461026b578063a230c52414610275578063bb3d676a146102b2578063c62b39a5146102db578063ce3437ce146102e55761011f565b80635c78fda7116100e75780635c78fda7146101d8578063715018a6146101e2578063772ccf5d146101f95780638da5cb5b1461023657806396882bb0146102615761011f565b806326714b3f14610124578063286a38231461014f57806329cb924d146101595780633af32abf146101845780633ccfd60b146101c1575b600080fd5b34801561013057600080fd5b50610139610405565b60405161014691906121a4565b60405180910390f35b610157610647565b005b34801561016557600080fd5b5061016e61071a565b60405161017b91906122a1565b60405180910390f35b34801561019057600080fd5b506101ab60048036038101906101a69190611e9d565b610722565b6040516101b891906121c6565b60405180910390f35b3480156101cd57600080fd5b506101d661076d565b005b6101e06107f3565b005b3480156101ee57600080fd5b506101f76108c6565b005b34801561020557600080fd5b50610220600480360381019061021b9190611e9d565b61094e565b60405161022d91906122a1565b60405180910390f35b34801561024257600080fd5b5061024b610966565b6040516102589190612160565b60405180910390f35b61026961098f565b005b610273610a62565b005b34801561028157600080fd5b5061029c60048036038101906102979190611e9d565b610b35565b6040516102a991906121c6565b60405180910390f35b3480156102be57600080fd5b506102d960048036038101906102d49190611eca565b610b80565b005b6102e3610c76565b005b3480156102f157600080fd5b5061030c60048036038101906103079190611f6f565b611045565b60405161031991906122a1565b60405180910390f35b34801561032e57600080fd5b5061034960048036038101906103449190611f9c565b6110cb565b005b34801561035757600080fd5b50610372600480360381019061036d9190611e9d565b6111bd565b005b34801561038057600080fd5b5061039b60048036038101906103969190611f13565b6112b5565b005b3480156103a957600080fd5b506103c460048036038101906103bf9190611e9d565b6113ae565b6040516103d191906122a1565b60405180910390f35b3480156103e657600080fd5b506103ef6113f7565b6040516103fc91906122a1565b60405180910390f35b60606000600580548060200260200160405190810160405280929190818152602001828054801561048b57602002820191906000526020600020905b8160009054906101000a900473ffffffffffffffffffffffffffffffffffffffff1673ffffffffffffffffffffffffffffffffffffffff1681526020019060010190808311610441575b50505050509050600067ffffffffffffffff8111156104ad576104ac6125bb565b5b6040519080825280602002602001820160405280156104db5781602001602082028036833780820191505090505b50600590805190602001906104f1929190611d2e565b5060005b81518110156105b957426105228383815181106105155761051461258c565b5b60200260200101516113ae565b11156105a657600582828151811061053d5761053c61258c565b5b60200260200101519080600181540180825580915050600190039060005260206000200160009091909190916101000a81548173ffffffffffffffffffffffffffffffffffffffff021916908373ffffffffffffffffffffffffffffffffffffffff1602179055505b80806105b1906124e5565b9150506104f5565b50600580548060200260200160405190810160405280929190818152602001828054801561063c57602002820191906000526020600020905b8160009054906101000a900473ffffffffffffffffffffffffffffffffffffffff1673ffffffffffffffffffffffffffffffffffffffff16815260200190600101908083116105f2575b505050505091505090565b60045434101561068c576040517f08c379a000000000000000000000000000000000000000000000000000000000815260040161068390612281565b60405180910390fd5b42600660003373ffffffffffffffffffffffffffffffffffffffff1673ffffffffffffffffffffffffffffffffffffffff168152602001908152602001600020541161070d576040517f08c379a0000000000000000000000000000000000000000000000000000000008152600401610704906121e1565b60405180910390fd5b61071833601e6113ff565b565b600042905090565b600042600660008473ffffffffffffffffffffffffffffffffffffffff1673ffffffffffffffffffffffffffffffffffffffff16815260200190815260200160002054119050919050565b610775611667565b73ffffffffffffffffffffffffffffffffffffffff16610793610966565b73ffffffffffffffffffffffffffffffffffffffff16146107e9576040517f08c379a00000000000000000000000000000000000000000000000000000000081526004016107e090612261565b60405180910390fd5b6107f161166f565b565b600154341015610838576040517f08c379a000000000000000000000000000000000000000000000000000000000815260040161082f90612281565b60405180910390fd5b42600660003373ffffffffffffffffffffffffffffffffffffffff1673ffffffffffffffffffffffffffffffffffffffff16815260200190815260200160002054116108b9576040517f08c379a00000000000000000000000000000000000000000000000000000000081526004016108b0906121e1565b60405180910390fd5b6108c43360b46113ff565b565b6108ce611667565b73ffffffffffffffffffffffffffffffffffffffff166108ec610966565b73ffffffffffffffffffffffffffffffffffffffff1614610942576040517f08c379a000000000000000000000000000000000000000000000000000000000815260040161093990612261565b60405180910390fd5b61094c6000611899565b565b60076020528060005260406000206000915090505481565b60008060009054906101000a900473ffffffffffffffffffffffffffffffffffffffff16905090565b6002543410156109d4576040517f08c379a00000000000000000000000000000000000000000000000000000000081526004016109cb90612281565b60405180910390fd5b42600660003373ffffffffffffffffffffffffffffffffffffffff1673ffffffffffffffffffffffffffffffffffffffff1681526020019081526020016000205411610a55576040517f08c379a0000000000000000000000000000000000000000000000000000000008152600401610a4c906121e1565b60405180910390fd5b610a603360016113ff565b565b600354341015610aa7576040517f08c379a0000000000000000000000000000000000000000000000000000000008152600401610a9e90612281565b60405180910390fd5b42600660003373ffffffffffffffffffffffffffffffffffffffff1673ffffffffffffffffffffffffffffffffffffffff1681526020019081526020016000205411610b28576040517f08c379a0000000000000000000000000000000000000000000000000000000008152600401610b1f906121e1565b60405180910390fd5b610b333360076113ff565b565b600042600760008473ffffffffffffffffffffffffffffffffffffffff1673ffffffffffffffffffffffffffffffffffffffff16815260200190815260200160002054119050919050565b610b88611667565b73ffffffffffffffffffffffffffffffffffffffff16610ba6610966565b73ffffffffffffffffffffffffffffffffffffffff1614610bfc576040517f08c379a0000000000000000000000000000000000000000000000000000000008152600401610bf390612261565b60405180910390fd5b600181511415610c2f57610c2a81600081518110610c1d57610c1c61258c565b5b602002602001015161195d565b610c73565b60005b8151811015610c7157610c5e828281518110610c5157610c5061258c565b5b602002602001015161195d565b8080610c69906124e5565b915050610c32565b505b50565b42600660003373ffffffffffffffffffffffffffffffffffffffff1673ffffffffffffffffffffffffffffffffffffffff168152602001908152602001600020541115610dd057610d10603c600660003373ffffffffffffffffffffffffffffffffffffffff1673ffffffffffffffffffffffffffffffffffffffff16815260200190815260200160002054611a1d90919063ffffffff16565b600660003373ffffffffffffffffffffffffffffffffffffffff1673ffffffffffffffffffffffffffffffffffffffff168152602001908152602001600020819055507fe0d7b08efc3ef6fb0431d2ada2315c95801655a6f35ba4346debea896c9ab40933600660003373ffffffffffffffffffffffffffffffffffffffff1673ffffffffffffffffffffffffffffffffffffffff16815260200190815260200160002054604051610dc392919061217b565b60405180910390a1610f03565b6005339080600181540180825580915050600190039060005260206000200160009091909190916101000a81548173ffffffffffffffffffffffffffffffffffffffff021916908373ffffffffffffffffffffffffffffffffffffffff160217905550610e47603c42611a1d90919063ffffffff16565b600660003373ffffffffffffffffffffffffffffffffffffffff1673ffffffffffffffffffffffffffffffffffffffff168152602001908152602001600020819055507fe0d7b08efc3ef6fb0431d2ada2315c95801655a6f35ba4346debea896c9ab40933600660003373ffffffffffffffffffffffffffffffffffffffff1673ffffffffffffffffffffffffffffffffffffffff16815260200190815260200160002054604051610efa92919061217b565b60405180910390a15b42600760003373ffffffffffffffffffffffffffffffffffffffff1673ffffffffffffffffffffffffffffffffffffffff1681526020019081526020016000205411610fa457610f5d603c42611a1d90919063ffffffff16565b600760003373ffffffffffffffffffffffffffffffffffffffff1673ffffffffffffffffffffffffffffffffffffffff16815260200190815260200160002081905561103a565b610ff7603c600760003373ffffffffffffffffffffffffffffffffffffffff1673ffffffffffffffffffffffffffffffffffffffff16815260200190815260200160002054611a1d90919063ffffffff16565b600760003373ffffffffffffffffffffffffffffffffffffffff1673ffffffffffffffffffffffffffffffffffffffff1681526020019081526020016000208190555b5061104361166f565b565b600060018214806110565750600782145b806110615750601e82145b8061106c575060b482145b61107557600080fd5b60018214156110885760025490506110c6565b600782141561109b5760035490506110c6565b601e8214156110ae5760045490506110c6565b60b48214156110c15760015490506110c6565b600090505b919050565b6110d3611667565b73ffffffffffffffffffffffffffffffffffffffff166110f1610966565b73ffffffffffffffffffffffffffffffffffffffff1614611147576040517f08c379a000000000000000000000000000000000000000000000000000000000815260040161113e90612261565b60405180910390fd5b60018214806111565750600782145b806111615750601e82145b8061116c575060b482145b61117557600080fd5b600182141561118657806002819055505b600782141561119757806003819055505b601e8214156111a857806004819055505b60b48214156111b957806001819055505b5050565b6111c5611667565b73ffffffffffffffffffffffffffffffffffffffff166111e3610966565b73ffffffffffffffffffffffffffffffffffffffff1614611239576040517f08c379a000000000000000000000000000000000000000000000000000000000815260040161123090612261565b60405180910390fd5b600073ffffffffffffffffffffffffffffffffffffffff168173ffffffffffffffffffffffffffffffffffffffff1614156112a9576040517f08c379a00000000000000000000000000000000000000000000000000000000081526004016112a090612201565b60405180910390fd5b6112b281611899565b50565b6112bd611667565b73ffffffffffffffffffffffffffffffffffffffff166112db610966565b73ffffffffffffffffffffffffffffffffffffffff1614611331576040517f08c379a000000000000000000000000000000000000000000000000000000000815260040161132890612261565b60405180910390fd5b60018251141561136557611360826000815181106113525761135161258c565b5b602002602001015182611a33565b6113aa565b60005b82518110156113a8576113958382815181106113875761138661258c565b5b602002602001015183611a33565b80806113a0906124e5565b915050611368565b505b5050565b6000600660008373ffffffffffffffffffffffffffffffffffffffff1673ffffffffffffffffffffffffffffffffffffffff168152602001908152602001600020549050919050565b600047905090565b6114098282611a33565b42600760008473ffffffffffffffffffffffffffffffffffffffff1673ffffffffffffffffffffffffffffffffffffffff168152602001908152602001600020541115611577576114b76114698262015180611cec90919063ffffffff16565b600760008573ffffffffffffffffffffffffffffffffffffffff1673ffffffffffffffffffffffffffffffffffffffff16815260200190815260200160002054611a1d90919063ffffffff16565b600760008473ffffffffffffffffffffffffffffffffffffffff1673ffffffffffffffffffffffffffffffffffffffff168152602001908152602001600020819055507f64d66f1ede5d6edc9563a68db3244db6e42c247b4dd4813ee2f2606c5770e2e982600760008573ffffffffffffffffffffffffffffffffffffffff1673ffffffffffffffffffffffffffffffffffffffff1681526020019081526020016000205460405161156a92919061217b565b60405180910390a161165b565b61159f6115908262015180611cec90919063ffffffff16565b42611a1d90919063ffffffff16565b600760008473ffffffffffffffffffffffffffffffffffffffff1673ffffffffffffffffffffffffffffffffffffffff168152602001908152602001600020819055507f64d66f1ede5d6edc9563a68db3244db6e42c247b4dd4813ee2f2606c5770e2e982600760008573ffffffffffffffffffffffffffffffffffffffff1673ffffffffffffffffffffffffffffffffffffffff1681526020019081526020016000205460405161165292919061217b565b60405180910390a15b61166361166f565b5050565b600033905090565b6000479050600081116116b7576040517f08c379a00000000000000000000000000000000000000000000000000000000081526004016116ae90612241565b60405180910390fd5b60006116c1610966565b905060006116ec60646116de605586611cec90919063ffffffff16565b611d0290919063ffffffff16565b905060008273ffffffffffffffffffffffffffffffffffffffff166108fc839081150290604051600060405180830381858888f19350505050905080611767576040517f08c379a000000000000000000000000000000000000000000000000000000000815260040161175e90612221565b60405180910390fd5b7fdf20fd1e76bc69d672e4814fafb2c449bba3a5369d8359adf9e05e6fde87b056838360405161179892919061217b565b60405180910390a160006117b58386611d1890919063ffffffff16565b9050600073dd870fa1b7c4700f2bd7f44238821c26f739214873ffffffffffffffffffffffffffffffffffffffff166108fc839081150290604051600060405180830381858888f19350505050905080611844576040517f08c379a000000000000000000000000000000000000000000000000000000000815260040161183b90612221565b60405180910390fd5b7fdf20fd1e76bc69d672e4814fafb2c449bba3a5369d8359adf9e05e6fde87b05673dd870fa1b7c4700f2bd7f44238821c26f73921488360405161188992919061217b565b60405180910390a1505050505050565b60008060009054906101000a900473ffffffffffffffffffffffffffffffffffffffff169050816000806101000a81548173ffffffffffffffffffffffffffffffffffffffff021916908373ffffffffffffffffffffffffffffffffffffffff1602179055508173ffffffffffffffffffffffffffffffffffffffff168173ffffffffffffffffffffffffffffffffffffffff167f8be0079c531659141344cd1fd0a4f28419497f9722a3daafe3b4186f6b6457e060405160405180910390a35050565b600660008273ffffffffffffffffffffffffffffffffffffffff1673ffffffffffffffffffffffffffffffffffffffff16815260200190815260200160002060009055600760008273ffffffffffffffffffffffffffffffffffffffff1673ffffffffffffffffffffffffffffffffffffffff168152602001908152602001600020600090557f7fd26be6fc92aff63f1f4409b2b2ddeb272a888031d7f55ec830485ec619418681604051611a129190612160565b60405180910390a150565b60008183611a2b9190612357565b905092915050565b42600660008473ffffffffffffffffffffffffffffffffffffffff1673ffffffffffffffffffffffffffffffffffffffff168152602001908152602001600020541115611ba157611ae1611a938262015180611cec90919063ffffffff16565b600660008573ffffffffffffffffffffffffffffffffffffffff1673ffffffffffffffffffffffffffffffffffffffff16815260200190815260200160002054611a1d90919063ffffffff16565b600660008473ffffffffffffffffffffffffffffffffffffffff1673ffffffffffffffffffffffffffffffffffffffff168152602001908152602001600020819055507fe0d7b08efc3ef6fb0431d2ada2315c95801655a6f35ba4346debea896c9ab40982600660008573ffffffffffffffffffffffffffffffffffffffff1673ffffffffffffffffffffffffffffffffffffffff16815260200190815260200160002054604051611b9492919061217b565b60405180910390a1611ce8565b6005829080600181540180825580915050600190039060005260206000200160009091909190916101000a81548173ffffffffffffffffffffffffffffffffffffffff021916908373ffffffffffffffffffffffffffffffffffffffff160217905550611c2c611c1d8262015180611cec90919063ffffffff16565b42611a1d90919063ffffffff16565b600660008473ffffffffffffffffffffffffffffffffffffffff1673ffffffffffffffffffffffffffffffffffffffff168152602001908152602001600020819055507fe0d7b08efc3ef6fb0431d2ada2315c95801655a6f35ba4346debea896c9ab40982600660008573ffffffffffffffffffffffffffffffffffffffff1673ffffffffffffffffffffffffffffffffffffffff16815260200190815260200160002054604051611cdf92919061217b565b60405180910390a15b5050565b60008183611cfa91906123de565b905092915050565b60008183611d1091906123ad565b905092915050565b60008183611d269190612438565b905092915050565b828054828255906000526020600020908101928215611da7579160200282015b82811115611da65782518260006101000a81548173ffffffffffffffffffffffffffffffffffffffff021916908373ffffffffffffffffffffffffffffffffffffffff16021790555091602001919060010190611d4e565b5b509050611db49190611db8565b5090565b5b80821115611dd1576000816000905550600101611db9565b5090565b6000611de8611de3846122e1565b6122bc565b90508083825260208201905082856020860282011115611e0b57611e0a6125ef565b5b60005b85811015611e3b5781611e218882611e45565b845260208401935060208301925050600181019050611e0e565b5050509392505050565b600081359050611e5481612751565b92915050565b600082601f830112611e6f57611e6e6125ea565b5b8135611e7f848260208601611dd5565b91505092915050565b600081359050611e9781612768565b92915050565b600060208284031215611eb357611eb26125f9565b5b6000611ec184828501611e45565b91505092915050565b600060208284031215611ee057611edf6125f9565b5b600082013567ffffffffffffffff811115611efe57611efd6125f4565b5b611f0a84828501611e5a565b91505092915050565b60008060408385031215611f2a57611f296125f9565b5b600083013567ffffffffffffffff811115611f4857611f476125f4565b5b611f5485828601611e5a565b9250506020611f6585828601611e88565b9150509250929050565b600060208284031215611f8557611f846125f9565b5b6000611f9384828501611e88565b91505092915050565b60008060408385031215611fb357611fb26125f9565b5b6000611fc185828601611e88565b9250506020611fd285828601611e88565b9150509250929050565b6000611fe88383611ff4565b60208301905092915050565b611ffd8161246c565b82525050565b61200c8161246c565b82525050565b600061201d8261231d565b6120278185612335565b93506120328361230d565b8060005b8381101561206357815161204a8882611fdc565b975061205583612328565b925050600181019050612036565b5085935050505092915050565b6120798161247e565b82525050565b600061208c602883612346565b91506120978261260f565b604082019050919050565b60006120af602683612346565b91506120ba8261265e565b604082019050919050565b60006120d2601483612346565b91506120dd826126ad565b602082019050919050565b60006120f5600f83612346565b9150612100826126d6565b602082019050919050565b6000612118602083612346565b9150612123826126ff565b602082019050919050565b600061213b601583612346565b915061214682612728565b602082019050919050565b61215a816124aa565b82525050565b60006020820190506121756000830184612003565b92915050565b60006040820190506121906000830185612003565b61219d6020830184612151565b9392505050565b600060208201905081810360008301526121be8184612012565b905092915050565b60006020820190506121db6000830184612070565b92915050565b600060208201905081810360008301526121fa8161207f565b9050919050565b6000602082019050818103600083015261221a816120a2565b9050919050565b6000602082019050818103600083015261223a816120c5565b9050919050565b6000602082019050818103600083015261225a816120e8565b9050919050565b6000602082019050818103600083015261227a8161210b565b9050919050565b6000602082019050818103600083015261229a8161212e565b9050919050565b60006020820190506122b66000830184612151565b92915050565b60006122c66122d7565b90506122d282826124b4565b919050565b6000604051905090565b600067ffffffffffffffff8211156122fc576122fb6125bb565b5b602082029050602081019050919050565b6000819050602082019050919050565b600081519050919050565b6000602082019050919050565b600082825260208201905092915050565b600082825260208201905092915050565b6000612362826124aa565b915061236d836124aa565b9250827fffffffffffffffffffffffffffffffffffffffffffffffffffffffffffffffff038211156123a2576123a161252e565b5b828201905092915050565b60006123b8826124aa565b91506123c3836124aa565b9250826123d3576123d261255d565b5b828204905092915050565b60006123e9826124aa565b91506123f4836124aa565b9250817fffffffffffffffffffffffffffffffffffffffffffffffffffffffffffffffff048311821515161561242d5761242c61252e565b5b828202905092915050565b6000612443826124aa565b915061244e836124aa565b9250828210156124615761246061252e565b5b828203905092915050565b60006124778261248a565b9050919050565b60008115159050919050565b600073ffffffffffffffffffffffffffffffffffffffff82169050919050565b6000819050919050565b6124bd826125fe565b810181811067ffffffffffffffff821117156124dc576124db6125bb565b5b80604052505050565b60006124f0826124aa565b91507fffffffffffffffffffffffffffffffffffffffffffffffffffffffffffffffff8214156125235761252261252e565b5b600182019050919050565b7f4e487b7100000000000000000000000000000000000000000000000000000000600052601160045260246000fd5b7f4e487b7100000000000000000000000000000000000000000000000000000000600052601260045260246000fd5b7f4e487b7100000000000000000000000000000000000000000000000000000000600052603260045260246000fd5b7f4e487b7100000000000000000000000000000000000000000000000000000000600052604160045260246000fd5b600080fd5b600080fd5b600080fd5b600080fd5b6000601f19601f8301169050919050565b7f4e6f742077686974656c69737465642c20506c6561736520636f6e746163742060008201527f746f2041646d696e000000000000000000000000000000000000000000000000602082015250565b7f4f776e61626c653a206e6577206f776e657220697320746865207a65726f206160008201527f6464726573730000000000000000000000000000000000000000000000000000602082015250565b7f4661696c656420746f2073656e64204574686572000000000000000000000000600082015250565b7f62616c616e6365206973206e696c6c0000000000000000000000000000000000600082015250565b7f4f776e61626c653a2063616c6c6572206973206e6f7420746865206f776e6572600082015250565b7f6e6f7420656e6f756768206d6f6e65792073656e740000000000000000000000600082015250565b61275a8161246c565b811461276557600080fd5b50565b612771816124aa565b811461277c57600080fd5b5056fea2646970667358221220eefee0c737ddc0c73fc41ee0ac486ed8b0008c3b0d0b6af9225c763ce55d7b1164736f6c63430008070033",
  "immutableReferences": {},
  "source": "// SPDX-License-Identifier: GPL-3.0\r\npragma solidity ^0.8.0;\r\n\r\n// Created by Al Razzaq\r\n// Name of the project\r\n\r\n\r\nimport \"@openzeppelin/contracts/utils/math/SafeMath.sol\";\r\nimport \"@openzeppelin/contracts/access/Ownable.sol\";\r\n\r\n\r\ncontract Fiverr is Ownable {\r\n    \r\n    using SafeMath for uint256;\r\n  \r\n//*********** Variables *****************\r\n\r\n  uint constant DAY_IN_SECONDS = 86400;\r\n  address constant private developer = 0xdD870fA1b7C4700F2BD7f44238821C26f7392148;\r\n  \r\n  uint private costOfSixMonthMemmbership =  0.7 ether;\r\n  uint private costOfOneDayMemmbership =  0.15 ether;\r\n  uint private costOfSevenDaysMemmbership =  0.06 ether;\r\n  uint private costOfOneMonthMemmbership =  0.02 ether;\r\n  \r\n  address[] private whitelistedUsers;\r\n\r\n\r\n//*********** Mappings *****************\r\n\r\n  mapping(address => uint256) private whitelisted;\r\n  mapping(address => uint256) public membership;\r\n  \r\n\r\n//*********** Events *****************\r\n  event AmountChanged(address account);\r\n  event MembershipAssigned(address account, uint duration);\r\n\r\n  event WhiteListed(address account, uint duration);\r\n  event BlackListed(address account);\r\n  event PaymentReleased(address to, uint256 amount);\r\n  event PaymentReceived(address from, uint256 amount);\r\n  \r\n  \r\n\r\n  function setCostOfMemmbership(uint256 _days, uint256 _amount) public onlyOwner{\r\n      require(_days == 1 || _days == 7 || _days == 30 || _days == 180);\r\n      \r\n      if(_days == 1){\r\n        costOfOneDayMemmbership = _amount;\r\n      }\r\n      if(_days == 7){\r\n        costOfSevenDaysMemmbership = _amount;\r\n      }\r\n      if(_days == 30){\r\n        costOfOneMonthMemmbership = _amount;\r\n      }\r\n      if(_days == 180){\r\n        costOfSixMonthMemmbership = _amount;\r\n      }\r\n      \r\n  }\r\n  \r\n  function getCostOfMemmbership(uint256 _days) view public returns(uint) {\r\n      require(_days == 1 || _days == 7 || _days == 30 || _days == 180);\r\n      \r\n      if(_days == 1){\r\n        return costOfOneDayMemmbership;\r\n      }\r\n      if(_days == 7){\r\n        return costOfSevenDaysMemmbership;\r\n      }\r\n      if(_days == 30){\r\n        return costOfOneMonthMemmbership;\r\n      }\r\n      if(_days == 180){\r\n        return costOfSixMonthMemmbership;\r\n      }\r\n      else {\r\n          return 0;\r\n      }\r\n\r\n  }\r\n \r\n  function getCurrentTime() view public returns(uint256) {\r\n      return block.timestamp;\r\n  }\r\n\r\n\r\n\r\n\r\n\r\n  function assignMembership(address _user, uint256 _days) internal {\r\n\r\n    whitelistUser(_user, _days);\r\n\r\n    if(membership[_user] > block.timestamp){\r\n        membership[_user] = membership[_user].add(DAY_IN_SECONDS.mul(_days));\r\n        emit MembershipAssigned(_user, membership[_user]);\r\n    }\r\n    else{\r\n        membership[_user] = block.timestamp.add(DAY_IN_SECONDS.mul(_days));\r\n        emit MembershipAssigned(_user, membership[_user]);\r\n\r\n    }\r\n\r\n   distributeEquity();\r\n            \r\n}\r\n\r\n  function whitelistUser(address _user, uint256 _days) internal {\r\n\r\n    if(whitelisted[_user] > block.timestamp){\r\n        whitelisted[_user] = whitelisted[_user].add(DAY_IN_SECONDS.mul(_days));\r\n        emit WhiteListed(_user, whitelisted[_user]);\r\n    }\r\n    else {\r\n        whitelistedUsers.push(_user);\r\n        whitelisted[_user] = block.timestamp.add(DAY_IN_SECONDS.mul(_days));\r\n        emit WhiteListed(_user, whitelisted[_user]);\r\n\r\n    }\r\n    \r\n  }\r\n\r\n  function blacklistUser(address _user) internal {\r\n    delete whitelisted[_user];\r\n    delete membership[_user];\r\n    emit BlackListed(_user);\r\n  }\r\n\r\n\r\n\r\n      // one minute subscription\r\n  function getSingleMinuteMembership() public payable {\r\n\r\n    //   require(msg.value >= 0.01 ether, \"not enough money sent\");\r\n    //   require(whitelisted[msg.sender] > block.timestamp, \"Not whitelisted, Please contact to Admin\");\r\n\r\n    if(whitelisted[msg.sender] > block.timestamp){\r\n        whitelisted[msg.sender] = whitelisted[msg.sender].add(60);\r\n        emit WhiteListed(msg.sender, whitelisted[msg.sender]);\r\n    }\r\n    else {\r\n        whitelistedUsers.push(msg.sender);\r\n        whitelisted[msg.sender] = block.timestamp.add(60);\r\n        emit WhiteListed(msg.sender, whitelisted[msg.sender]);\r\n\r\n    }      \r\n      membership[msg.sender] > block.timestamp ?\r\n            membership[msg.sender] = membership[msg.sender].add(60) :\r\n            membership[msg.sender] = block.timestamp.add(60);\r\n            \r\n\r\n      distributeEquity();\r\n\r\n  }    \r\n\r\n      // Daily subscription\r\n  function getSingleDayMembership() public payable {\r\n\r\n      require(msg.value >= costOfOneDayMemmbership, \"not enough money sent\");\r\n      require(whitelisted[msg.sender] > block.timestamp, \"Not whitelisted, Please contact to Admin\");\r\n\r\n    assignMembership(msg.sender, 1);\r\n\r\n  }     \r\n   \r\n      // Weekly subscription\r\n  function getSevenDayMembership() public payable {\r\n\r\n      require(msg.value >= costOfSevenDaysMemmbership, \"not enough money sent\");\r\n      require(whitelisted[msg.sender] >block.timestamp, \"Not whitelisted, Please contact to Admin\");\r\n      \r\n      assignMembership(msg.sender, 7);\r\n\r\n}\r\n\r\n      // Monthly subscription\r\n  function getOneMonthMembership() public payable {\r\n\r\n      require(msg.value >= costOfOneMonthMemmbership, \"not enough money sent\");\r\n      require(whitelisted[msg.sender] >block.timestamp, \"Not whitelisted, Please contact to Admin\");\r\n\r\n         assignMembership(msg.sender, 30);\r\n\r\n}\r\n\r\n      // Six Monthl subscription\r\n  function getSixMonthMembership() public payable {\r\n\r\n      require(msg.value >= costOfSixMonthMemmbership, \"not enough money sent\");\r\n      require(whitelisted[msg.sender] > block.timestamp, \"Not whitelisted, Please contact to Admin\");\r\n\r\n      assignMembership(msg.sender, 180);\r\n\r\n}\r\n\r\n\r\n  function isWhitelisted(address _address) public view returns (bool) {\r\n    return whitelisted[_address] > block.timestamp;\r\n  }\r\n  \r\n  function isMember(address _address) public view returns (bool) {\r\n    return membership[_address] > block.timestamp;\r\n  }\r\n  \r\n  \r\n  function whitelistedPeriod(address _address) public view returns (uint) {\r\n    return whitelisted[_address];\r\n  }\r\n  \r\n \r\n \r\n \r\n  function whitelistUsers(address[] memory _users, uint256 _days) public onlyOwner {\r\n      \r\n    if(_users.length == 1){\r\n        whitelistUser(_users[0], _days);\r\n    }\r\n    else {\r\n        for(uint i = 0; i < _users.length; i++){\r\n            whitelistUser(_users[i], _days);\r\n        }\r\n    }\r\n  }\r\n  \r\n\r\n  function blacklistUsers(address[] memory _users) public onlyOwner {\r\n      \r\n    if(_users.length == 1){\r\n        blacklistUser(_users[0]);\r\n    }\r\n    else {\r\n        for(uint i = 0; i < _users.length; i++){\r\n        blacklistUser(_users[i]);\r\n        }\r\n    }\r\n  }\r\n  \r\n  \r\n  function listOfwhitelistedUsers() public returns(address[] memory){\r\n      \r\n    address[] memory allWhitelistedUsers = whitelistedUsers;\r\n\r\n    whitelistedUsers = new address[](0);\r\n      \r\n    for(uint i = 0; i < allWhitelistedUsers.length; i++){\r\n        if( whitelistedPeriod(allWhitelistedUsers[i]) >  block.timestamp){\r\n            whitelistedUsers.push(allWhitelistedUsers[i]);\r\n        }\r\n    }\r\n      \r\n      return whitelistedUsers;\r\n  }\r\n  \r\n  \r\n  function totalBalanceAvailable() public view returns(uint256) {\r\n        return  address(this).balance;\r\n    }\r\n    \r\n    \r\n  function withdraw() public onlyOwner {\r\n      distributeEquity();\r\n  }\r\n \r\n    \r\n  function distributeEquity() internal {\r\n        \r\n        uint256 totalamount =  address(this).balance;\r\n        require(totalamount > 0, \"balance is nill\");\r\n\r\n        address owner = owner();\r\n        \r\n        // distribute owner's 85% cut\r\n        uint256 ownersCut =  totalamount.mul(85).div(100);     \r\n        // balance[owner] = balance[owner].add(ownersCut);\r\n        bool sentOwner = payable(owner).send(ownersCut);\r\n        require(sentOwner, \"Failed to send Ether\");\r\n        emit PaymentReleased(owner, ownersCut);\r\n        \r\n        // pay developer remaining 15%\r\n        uint developersCut = totalamount.sub(ownersCut);\r\n        bool sentDeveloper = payable(developer).send(developersCut);\r\n        require(sentDeveloper, \"Failed to send Ether\");\r\n        emit PaymentReleased(developer, developersCut);\r\n        \r\n    }\r\n  \r\n}",
  "sourcePath": "D:\\Fiverr\\rankingApp\\backend\\contracts\\RankNFT.sol",
  "compiler": {
    "name": "solc",
    "version": "0.8.7+commit.e28d00a7.Emscripten.clang"
  },
  "schemaVersion": "3.4.3",
  "updatedAt": "2021-09-25T13:35:36.022Z",
  "devdoc": {
    "kind": "dev",
    "methods": {
      "owner()": {
        "details": "Returns the address of the current owner."
      },
      "renounceOwnership()": {
        "details": "Leaves the contract without owner. It will not be possible to call `onlyOwner` functions anymore. Can only be called by the current owner. NOTE: Renouncing ownership will leave the contract without an owner, thereby removing any functionality that is only available to the owner."
      },
      "transferOwnership(address)": {
        "details": "Transfers ownership of the contract to a new account (`newOwner`). Can only be called by the current owner."
      }
    },
    "version": 1
  },
  "userdoc": {
    "kind": "user",
    "methods": {},
    "version": 1
  }
}