{
  "contractName": "RankNFT",
  "abi": [
    {
      "anonymous": false,
      "inputs": [
        {
          "indexed": false,
          "internalType": "address",
          "name": "account",
          "type": "address"
        }
      ],
      "name": "AmountChanged",
      "type": "event"
    },
    {
      "anonymous": false,
      "inputs": [
        {
          "indexed": false,
          "internalType": "address",
          "name": "account",
          "type": "address"
        }
      ],
      "name": "BlackListed",
      "type": "event"
    },
    {
      "anonymous": false,
      "inputs": [
        {
          "indexed": false,
          "internalType": "address",
          "name": "account",
          "type": "address"
        },
        {
          "indexed": false,
          "internalType": "uint256",
          "name": "duration",
          "type": "uint256"
        }
      ],
      "name": "MembershipAssigned",
      "type": "event"
    },
    {
      "anonymous": false,
      "inputs": [
        {
          "indexed": true,
          "internalType": "address",
          "name": "previousOwner",
          "type": "address"
        },
        {
          "indexed": true,
          "internalType": "address",
          "name": "newOwner",
          "type": "address"
        }
      ],
      "name": "OwnershipTransferred",
      "type": "event"
    },
    {
      "anonymous": false,
      "inputs": [
        {
          "indexed": false,
          "internalType": "address",
          "name": "from",
          "type": "address"
        },
        {
          "indexed": false,
          "internalType": "uint256",
          "name": "amount",
          "type": "uint256"
        }
      ],
      "name": "PaymentReceived",
      "type": "event"
    },
    {
      "anonymous": false,
      "inputs": [
        {
          "indexed": false,
          "internalType": "address",
          "name": "to",
          "type": "address"
        },
        {
          "indexed": false,
          "internalType": "uint256",
          "name": "amount",
          "type": "uint256"
        }
      ],
      "name": "PaymentReleased",
      "type": "event"
    },
    {
      "anonymous": false,
      "inputs": [
        {
          "indexed": false,
          "internalType": "address",
          "name": "account",
          "type": "address"
        },
        {
          "indexed": false,
          "internalType": "uint256",
          "name": "duration",
          "type": "uint256"
        }
      ],
      "name": "WhiteListed",
      "type": "event"
    },
    {
      "inputs": [],
      "name": "owner",
      "outputs": [
        {
          "internalType": "address",
          "name": "",
          "type": "address"
        }
      ],
      "stateMutability": "view",
      "type": "function"
    },
    {
      "inputs": [],
      "name": "renounceOwnership",
      "outputs": [],
      "stateMutability": "nonpayable",
      "type": "function"
    },
    {
      "inputs": [
        {
          "internalType": "address",
          "name": "",
          "type": "address"
        }
      ],
      "name": "subscription_period",
      "outputs": [
        {
          "internalType": "uint256",
          "name": "",
          "type": "uint256"
        }
      ],
      "stateMutability": "view",
      "type": "function"
    },
    {
      "inputs": [
        {
          "internalType": "address",
          "name": "newOwner",
          "type": "address"
        }
      ],
      "name": "transferOwnership",
      "outputs": [],
      "stateMutability": "nonpayable",
      "type": "function"
    },
    {
      "inputs": [
        {
          "internalType": "address",
          "name": "",
          "type": "address"
        }
      ],
      "name": "whitelisting_period",
      "outputs": [
        {
          "internalType": "uint256",
          "name": "",
          "type": "uint256"
        }
      ],
      "stateMutability": "view",
      "type": "function"
    },
    {
      "inputs": [],
      "name": "developer_address",
      "outputs": [
        {
          "internalType": "address",
          "name": "",
          "type": "address"
        }
      ],
      "stateMutability": "pure",
      "type": "function"
    },
    {
      "inputs": [
        {
          "internalType": "uint256",
          "name": "_days",
          "type": "uint256"
        },
        {
          "internalType": "uint256",
          "name": "_amount",
          "type": "uint256"
        }
      ],
      "name": "set_cost_of_subscription",
      "outputs": [],
      "stateMutability": "nonpayable",
      "type": "function"
    },
    {
      "inputs": [
        {
          "internalType": "uint256",
          "name": "_days",
          "type": "uint256"
        }
      ],
      "name": "get_cost_of_subscription",
      "outputs": [
        {
          "internalType": "uint256",
          "name": "",
          "type": "uint256"
        }
      ],
      "stateMutability": "view",
      "type": "function"
    },
    {
      "inputs": [
        {
          "internalType": "address[]",
          "name": "_users",
          "type": "address[]"
        },
        {
          "internalType": "uint256",
          "name": "_hours",
          "type": "uint256"
        }
      ],
      "name": "giveaway_subscription",
      "outputs": [],
      "stateMutability": "nonpayable",
      "type": "function"
    },
    {
      "inputs": [],
      "name": "get_single_day_subscription",
      "outputs": [],
      "stateMutability": "payable",
      "type": "function"
    },
    {
      "inputs": [],
      "name": "get_seven_days_subscription",
      "outputs": [],
      "stateMutability": "payable",
      "type": "function"
    },
    {
      "inputs": [],
      "name": "get_one_month_subscription",
      "outputs": [],
      "stateMutability": "payable",
      "type": "function"
    },
    {
      "inputs": [],
      "name": "get_six_month_subscription",
      "outputs": [],
      "stateMutability": "payable",
      "type": "function"
    },
    {
      "inputs": [
        {
          "internalType": "address",
          "name": "_address",
          "type": "address"
        }
      ],
      "name": "is_whitelisted",
      "outputs": [
        {
          "internalType": "bool",
          "name": "",
          "type": "bool"
        }
      ],
      "stateMutability": "view",
      "type": "function"
    },
    {
      "inputs": [
        {
          "internalType": "address",
          "name": "_address",
          "type": "address"
        }
      ],
      "name": "is_subscriber",
      "outputs": [
        {
          "internalType": "bool",
          "name": "",
          "type": "bool"
        }
      ],
      "stateMutability": "view",
      "type": "function"
    },
    {
      "inputs": [
        {
          "internalType": "address[]",
          "name": "_users",
          "type": "address[]"
        },
        {
          "internalType": "uint256",
          "name": "_days",
          "type": "uint256"
        }
      ],
      "name": "whitelist_users",
      "outputs": [],
      "stateMutability": "nonpayable",
      "type": "function"
    },
    {
      "inputs": [
        {
          "internalType": "address[]",
          "name": "_users",
          "type": "address[]"
        }
      ],
      "name": "blacklist_users",
      "outputs": [],
      "stateMutability": "nonpayable",
      "type": "function"
    },
    {
      "inputs": [],
      "name": "list_of_whitelisted_users",
      "outputs": [
        {
          "internalType": "address[]",
          "name": "",
          "type": "address[]"
        }
      ],
      "stateMutability": "view",
      "type": "function"
    },
    {
      "inputs": [],
      "name": "refresh_list_of_whitelisted_users",
      "outputs": [],
      "stateMutability": "nonpayable",
      "type": "function"
    },
    {
      "inputs": [],
      "name": "total_balance_available",
      "outputs": [
        {
          "internalType": "uint256",
          "name": "",
          "type": "uint256"
        }
      ],
      "stateMutability": "view",
      "type": "function"
    },
    {
      "inputs": [],
      "name": "withdraw_total_amount",
      "outputs": [],
      "stateMutability": "nonpayable",
      "type": "function"
    }
  ],
  "bytecode": "0x60806040526709b6e64a8ec60000600155670214e8348c4f000060025566d529ae9e86000060035566470de4df8200006004553480156200003f57600080fd5b5062000060620000546200006660201b60201c565b6200006e60201b60201c565b62000132565b600033905090565b60008060009054906101000a900473ffffffffffffffffffffffffffffffffffffffff169050816000806101000a81548173ffffffffffffffffffffffffffffffffffffffff021916908373ffffffffffffffffffffffffffffffffffffffff1602179055508173ffffffffffffffffffffffffffffffffffffffff168173ffffffffffffffffffffffffffffffffffffffff167f8be0079c531659141344cd1fd0a4f28419497f9722a3daafe3b4186f6b6457e060405160405180910390a35050565b612aba80620001426000396000f3fe6080604052600436106101295760003560e01c8063b88a9b28116100ab578063e6d31a3f1161006f578063e6d31a3f1461035a578063e7c33cdd14610364578063e8972de01461038d578063ef5ff20d146103ca578063f2fde38b146103f3578063fe3912f41461041c57610129565b8063b88a9b281461029b578063c45dca49146102c4578063cd8df06d146102db578063de2acea414610306578063e42297881461031d57610129565b80636bb29bbc116100f25780636bb29bbc146101b4578063715018a6146101df57806373fdea4c146101f6578063779ee628146102335780638da5cb5b1461027057610129565b80628937c51461012e5780630a76b31f1461013857806329a460a5146101425780633583a0bf1461014c5780633ce22cf014610189575b600080fd5b610136610445565b005b610140610518565b005b61014a6105eb565b005b34801561015857600080fd5b50610173600480360381019061016e9190612153565b6106be565b6040516101809190612199565b60405180910390f35b34801561019557600080fd5b5061019e6106d6565b6040516101ab9190612199565b60405180910390f35b3480156101c057600080fd5b506101c96106de565b6040516101d69190612272565b60405180910390f35b3480156101eb57600080fd5b506101f461076c565b005b34801561020257600080fd5b5061021d60048036038101906102189190612153565b6107f4565b60405161022a9190612199565b60405180910390f35b34801561023f57600080fd5b5061025a60048036038101906102559190612153565b61080c565b60405161026791906122af565b60405180910390f35b34801561027c57600080fd5b50610285610857565b60405161029291906122d9565b60405180910390f35b3480156102a757600080fd5b506102c260048036038101906102bd9190612479565b610880565b005b3480156102d057600080fd5b506102d9610979565b005b3480156102e757600080fd5b506102f06109ff565b6040516102fd91906122d9565b60405180910390f35b34801561031257600080fd5b5061031b610a1b565b005b34801561032957600080fd5b50610344600480360381019061033f9190612153565b610c84565b60405161035191906122af565b60405180910390f35b610362610ccf565b005b34801561037057600080fd5b5061038b600480360381019061038691906124d5565b610da2565b005b34801561039957600080fd5b506103b460048036038101906103af9190612515565b610e94565b6040516103c19190612199565b60405180910390f35b3480156103d657600080fd5b506103f160048036038101906103ec9190612479565b610f1a565b005b3480156103ff57600080fd5b5061041a60048036038101906104159190612153565b61151d565b005b34801561042857600080fd5b50610443600480360381019061043e9190612542565b611615565b005b60035434101561048a576040517f08c379a0000000000000000000000000000000000000000000000000000000008152600401610481906125e8565b60405180910390fd5b42600660003373ffffffffffffffffffffffffffffffffffffffff1673ffffffffffffffffffffffffffffffffffffffff168152602001908152602001600020541161050b576040517f08c379a00000000000000000000000000000000000000000000000000000000081526004016105029061267a565b60405180910390fd5b61051633600761170b565b565b60025434101561055d576040517f08c379a0000000000000000000000000000000000000000000000000000000008152600401610554906125e8565b60405180910390fd5b42600660003373ffffffffffffffffffffffffffffffffffffffff1673ffffffffffffffffffffffffffffffffffffffff16815260200190815260200160002054116105de576040517f08c379a00000000000000000000000000000000000000000000000000000000081526004016105d59061267a565b60405180910390fd5b6105e933601e61170b565b565b600454341015610630576040517f08c379a0000000000000000000000000000000000000000000000000000000008152600401610627906125e8565b60405180910390fd5b42600660003373ffffffffffffffffffffffffffffffffffffffff1673ffffffffffffffffffffffffffffffffffffffff16815260200190815260200160002054116106b1576040517f08c379a00000000000000000000000000000000000000000000000000000000081526004016106a89061267a565b60405180910390fd5b6106bc33600161170b565b565b60066020528060005260406000206000915090505481565b600047905090565b6060600580548060200260200160405190810160405280929190818152602001828054801561076257602002820191906000526020600020905b8160009054906101000a900473ffffffffffffffffffffffffffffffffffffffff1673ffffffffffffffffffffffffffffffffffffffff1681526020019060010190808311610718575b5050505050905090565b610774611973565b73ffffffffffffffffffffffffffffffffffffffff16610792610857565b73ffffffffffffffffffffffffffffffffffffffff16146107e8576040517f08c379a00000000000000000000000000000000000000000000000000000000081526004016107df906126e6565b60405180910390fd5b6107f2600061197b565b565b60076020528060005260406000206000915090505481565b600042600660008473ffffffffffffffffffffffffffffffffffffffff1673ffffffffffffffffffffffffffffffffffffffff16815260200190815260200160002054119050919050565b60008060009054906101000a900473ffffffffffffffffffffffffffffffffffffffff16905090565b610888611973565b73ffffffffffffffffffffffffffffffffffffffff166108a6610857565b73ffffffffffffffffffffffffffffffffffffffff16146108fc576040517f08c379a00000000000000000000000000000000000000000000000000000000081526004016108f3906126e6565b60405180910390fd5b6001825114156109305761092b8260008151811061091d5761091c612706565b5b602002602001015182611a3f565b610975565b60005b82518110156109735761096083828151811061095257610951612706565b5b602002602001015183611a3f565b808061096b90612764565b915050610933565b505b5050565b610981611973565b73ffffffffffffffffffffffffffffffffffffffff1661099f610857565b73ffffffffffffffffffffffffffffffffffffffff16146109f5576040517f08c379a00000000000000000000000000000000000000000000000000000000081526004016109ec906126e6565b60405180910390fd5b6109fd611cf8565b565b60007331d165f1123ad9166cbfac2b11d2f377e824b08b905090565b610a23611973565b73ffffffffffffffffffffffffffffffffffffffff16610a41610857565b73ffffffffffffffffffffffffffffffffffffffff1614610a97576040517f08c379a0000000000000000000000000000000000000000000000000000000008152600401610a8e906126e6565b60405180910390fd5b60006005805480602002602001604051908101604052809291908181526020018280548015610b1b57602002820191906000526020600020905b8160009054906101000a900473ffffffffffffffffffffffffffffffffffffffff1673ffffffffffffffffffffffffffffffffffffffff1681526020019060010190808311610ad1575b50505050509050600067ffffffffffffffff811115610b3d57610b3c61230a565b5b604051908082528060200260200182016040528015610b6b5781602001602082028036833780820191505090505b5060059080519060200190610b8192919061203a565b5060005b8151811015610c80574260066000848481518110610ba657610ba5612706565b5b602002602001015173ffffffffffffffffffffffffffffffffffffffff1673ffffffffffffffffffffffffffffffffffffffff168152602001908152602001600020541115610c6d576005828281518110610c0457610c03612706565b5b60200260200101519080600181540180825580915050600190039060005260206000200160009091909190916101000a81548173ffffffffffffffffffffffffffffffffffffffff021916908373ffffffffffffffffffffffffffffffffffffffff1602179055505b8080610c7890612764565b915050610b85565b5050565b600042600760008473ffffffffffffffffffffffffffffffffffffffff1673ffffffffffffffffffffffffffffffffffffffff16815260200190815260200160002054119050919050565b600154341015610d14576040517f08c379a0000000000000000000000000000000000000000000000000000000008152600401610d0b906125e8565b60405180910390fd5b42600660003373ffffffffffffffffffffffffffffffffffffffff1673ffffffffffffffffffffffffffffffffffffffff1681526020019081526020016000205411610d95576040517f08c379a0000000000000000000000000000000000000000000000000000000008152600401610d8c9061267a565b60405180910390fd5b610da03360b461170b565b565b610daa611973565b73ffffffffffffffffffffffffffffffffffffffff16610dc8610857565b73ffffffffffffffffffffffffffffffffffffffff1614610e1e576040517f08c379a0000000000000000000000000000000000000000000000000000000008152600401610e15906126e6565b60405180910390fd5b6001821480610e2d5750600782145b80610e385750601e82145b80610e43575060b482145b610e4c57600080fd5b6001821415610e5d57806004819055505b6007821415610e6e57806003819055505b601e821415610e7f57806002819055505b60b4821415610e9057806001819055505b5050565b60006001821480610ea55750600782145b80610eb05750601e82145b80610ebb575060b482145b610ec457600080fd5b6001821415610ed7576004549050610f15565b6007821415610eea576003549050610f15565b601e821415610efd576002549050610f15565b60b4821415610f10576001549050610f15565b600090505b919050565b610f22611973565b73ffffffffffffffffffffffffffffffffffffffff16610f40610857565b73ffffffffffffffffffffffffffffffffffffffff1614610f96576040517f08c379a0000000000000000000000000000000000000000000000000000000008152600401610f8d906126e6565b60405180910390fd5b60005b8251811015611518574260066000858481518110610fba57610fb9612706565b5b602002602001015173ffffffffffffffffffffffffffffffffffffffff1673ffffffffffffffffffffffffffffffffffffffff1681526020019081526020016000205411156111915761108361101b83610e10611f2290919063ffffffff16565b6006600086858151811061103257611031612706565b5b602002602001015173ffffffffffffffffffffffffffffffffffffffff1673ffffffffffffffffffffffffffffffffffffffff16815260200190815260200160002054611f3890919063ffffffff16565b6006600085848151811061109a57611099612706565b5b602002602001015173ffffffffffffffffffffffffffffffffffffffff1673ffffffffffffffffffffffffffffffffffffffff168152602001908152602001600020819055507fe0d7b08efc3ef6fb0431d2ada2315c95801655a6f35ba4346debea896c9ab40983828151811061111457611113612706565b5b60200260200101516006600086858151811061113357611132612706565b5b602002602001015173ffffffffffffffffffffffffffffffffffffffff1673ffffffffffffffffffffffffffffffffffffffff168152602001908152602001600020546040516111849291906127ad565b60405180910390a161133f565b60058382815181106111a6576111a5612706565b5b60200260200101519080600181540180825580915050600190039060005260206000200160009091909190916101000a81548173ffffffffffffffffffffffffffffffffffffffff021916908373ffffffffffffffffffffffffffffffffffffffff16021790555061123561122683610e10611f2290919063ffffffff16565b42611f3890919063ffffffff16565b6006600085848151811061124c5761124b612706565b5b602002602001015173ffffffffffffffffffffffffffffffffffffffff1673ffffffffffffffffffffffffffffffffffffffff168152602001908152602001600020819055507fe0d7b08efc3ef6fb0431d2ada2315c95801655a6f35ba4346debea896c9ab4098382815181106112c6576112c5612706565b5b6020026020010151600660008685815181106112e5576112e4612706565b5b602002602001015173ffffffffffffffffffffffffffffffffffffffff1673ffffffffffffffffffffffffffffffffffffffff168152602001908152602001600020546040516113369291906127ad565b60405180910390a15b426007600085848151811061135757611356612706565b5b602002602001015173ffffffffffffffffffffffffffffffffffffffff1673ffffffffffffffffffffffffffffffffffffffff1681526020019081526020016000205411611427576113c66113b783610e10611f2290919063ffffffff16565b42611f3890919063ffffffff16565b600760008584815181106113dd576113dc612706565b5b602002602001015173ffffffffffffffffffffffffffffffffffffffff1673ffffffffffffffffffffffffffffffffffffffff168152602001908152602001600020819055611504565b6114a761143f83610e10611f2290919063ffffffff16565b6007600086858151811061145657611455612706565b5b602002602001015173ffffffffffffffffffffffffffffffffffffffff1673ffffffffffffffffffffffffffffffffffffffff16815260200190815260200160002054611f3890919063ffffffff16565b600760008584815181106114be576114bd612706565b5b602002602001015173ffffffffffffffffffffffffffffffffffffffff1673ffffffffffffffffffffffffffffffffffffffff1681526020019081526020016000208190555b50808061151090612764565b915050610f99565b505050565b611525611973565b73ffffffffffffffffffffffffffffffffffffffff16611543610857565b73ffffffffffffffffffffffffffffffffffffffff1614611599576040517f08c379a0000000000000000000000000000000000000000000000000000000008152600401611590906126e6565b60405180910390fd5b600073ffffffffffffffffffffffffffffffffffffffff168173ffffffffffffffffffffffffffffffffffffffff161415611609576040517f08c379a000000000000000000000000000000000000000000000000000000000815260040161160090612848565b60405180910390fd5b6116128161197b565b50565b61161d611973565b73ffffffffffffffffffffffffffffffffffffffff1661163b610857565b73ffffffffffffffffffffffffffffffffffffffff1614611691576040517f08c379a0000000000000000000000000000000000000000000000000000000008152600401611688906126e6565b60405180910390fd5b6001815114156116c4576116bf816000815181106116b2576116b1612706565b5b6020026020010151611f4e565b611708565b60005b8151811015611706576116f38282815181106116e6576116e5612706565b5b6020026020010151611f4e565b80806116fe90612764565b9150506116c7565b505b50565b6117158282611a3f565b42600760008473ffffffffffffffffffffffffffffffffffffffff1673ffffffffffffffffffffffffffffffffffffffff168152602001908152602001600020541115611883576117c36117758262015180611f2290919063ffffffff16565b600760008573ffffffffffffffffffffffffffffffffffffffff1673ffffffffffffffffffffffffffffffffffffffff16815260200190815260200160002054611f3890919063ffffffff16565b600760008473ffffffffffffffffffffffffffffffffffffffff1673ffffffffffffffffffffffffffffffffffffffff168152602001908152602001600020819055507f64d66f1ede5d6edc9563a68db3244db6e42c247b4dd4813ee2f2606c5770e2e982600760008573ffffffffffffffffffffffffffffffffffffffff1673ffffffffffffffffffffffffffffffffffffffff168152602001908152602001600020546040516118769291906127ad565b60405180910390a1611967565b6118ab61189c8262015180611f2290919063ffffffff16565b42611f3890919063ffffffff16565b600760008473ffffffffffffffffffffffffffffffffffffffff1673ffffffffffffffffffffffffffffffffffffffff168152602001908152602001600020819055507f64d66f1ede5d6edc9563a68db3244db6e42c247b4dd4813ee2f2606c5770e2e982600760008573ffffffffffffffffffffffffffffffffffffffff1673ffffffffffffffffffffffffffffffffffffffff1681526020019081526020016000205460405161195e9291906127ad565b60405180910390a15b61196f611cf8565b5050565b600033905090565b60008060009054906101000a900473ffffffffffffffffffffffffffffffffffffffff169050816000806101000a81548173ffffffffffffffffffffffffffffffffffffffff021916908373ffffffffffffffffffffffffffffffffffffffff1602179055508173ffffffffffffffffffffffffffffffffffffffff168173ffffffffffffffffffffffffffffffffffffffff167f8be0079c531659141344cd1fd0a4f28419497f9722a3daafe3b4186f6b6457e060405160405180910390a35050565b42600660008473ffffffffffffffffffffffffffffffffffffffff1673ffffffffffffffffffffffffffffffffffffffff168152602001908152602001600020541115611bad57611aed611a9f8262015180611f2290919063ffffffff16565b600660008573ffffffffffffffffffffffffffffffffffffffff1673ffffffffffffffffffffffffffffffffffffffff16815260200190815260200160002054611f3890919063ffffffff16565b600660008473ffffffffffffffffffffffffffffffffffffffff1673ffffffffffffffffffffffffffffffffffffffff168152602001908152602001600020819055507fe0d7b08efc3ef6fb0431d2ada2315c95801655a6f35ba4346debea896c9ab40982600660008573ffffffffffffffffffffffffffffffffffffffff1673ffffffffffffffffffffffffffffffffffffffff16815260200190815260200160002054604051611ba09291906127ad565b60405180910390a1611cf4565b6005829080600181540180825580915050600190039060005260206000200160009091909190916101000a81548173ffffffffffffffffffffffffffffffffffffffff021916908373ffffffffffffffffffffffffffffffffffffffff160217905550611c38611c298262015180611f2290919063ffffffff16565b42611f3890919063ffffffff16565b600660008473ffffffffffffffffffffffffffffffffffffffff1673ffffffffffffffffffffffffffffffffffffffff168152602001908152602001600020819055507fe0d7b08efc3ef6fb0431d2ada2315c95801655a6f35ba4346debea896c9ab40982600660008573ffffffffffffffffffffffffffffffffffffffff1673ffffffffffffffffffffffffffffffffffffffff16815260200190815260200160002054604051611ceb9291906127ad565b60405180910390a15b5050565b600047905060008111611d40576040517f08c379a0000000000000000000000000000000000000000000000000000000008152600401611d37906128b4565b60405180910390fd5b6000611d4a610857565b90506000611d756064611d67605586611f2290919063ffffffff16565b61200e90919063ffffffff16565b905060008273ffffffffffffffffffffffffffffffffffffffff166108fc839081150290604051600060405180830381858888f19350505050905080611df0576040517f08c379a0000000000000000000000000000000000000000000000000000000008152600401611de790612920565b60405180910390fd5b7fdf20fd1e76bc69d672e4814fafb2c449bba3a5369d8359adf9e05e6fde87b0568383604051611e219291906127ad565b60405180910390a16000611e3e838661202490919063ffffffff16565b905060007331d165f1123ad9166cbfac2b11d2f377e824b08b73ffffffffffffffffffffffffffffffffffffffff166108fc839081150290604051600060405180830381858888f19350505050905080611ecd576040517f08c379a0000000000000000000000000000000000000000000000000000000008152600401611ec490612920565b60405180910390fd5b7fdf20fd1e76bc69d672e4814fafb2c449bba3a5369d8359adf9e05e6fde87b0567331d165f1123ad9166cbfac2b11d2f377e824b08b83604051611f129291906127ad565b60405180910390a1505050505050565b60008183611f309190612940565b905092915050565b60008183611f46919061299a565b905092915050565b600660008273ffffffffffffffffffffffffffffffffffffffff1673ffffffffffffffffffffffffffffffffffffffff16815260200190815260200160002060009055600760008273ffffffffffffffffffffffffffffffffffffffff1673ffffffffffffffffffffffffffffffffffffffff168152602001908152602001600020600090557f7fd26be6fc92aff63f1f4409b2b2ddeb272a888031d7f55ec830485ec61941868160405161200391906122d9565b60405180910390a150565b6000818361201c9190612a1f565b905092915050565b600081836120329190612a50565b905092915050565b8280548282559060005260206000209081019282156120b3579160200282015b828111156120b25782518260006101000a81548173ffffffffffffffffffffffffffffffffffffffff021916908373ffffffffffffffffffffffffffffffffffffffff1602179055509160200191906001019061205a565b5b5090506120c091906120c4565b5090565b5b808211156120dd5760008160009055506001016120c5565b5090565b6000604051905090565b600080fd5b600080fd5b600073ffffffffffffffffffffffffffffffffffffffff82169050919050565b6000612120826120f5565b9050919050565b61213081612115565b811461213b57600080fd5b50565b60008135905061214d81612127565b92915050565b600060208284031215612169576121686120eb565b5b60006121778482850161213e565b91505092915050565b6000819050919050565b61219381612180565b82525050565b60006020820190506121ae600083018461218a565b92915050565b600081519050919050565b600082825260208201905092915050565b6000819050602082019050919050565b6121e981612115565b82525050565b60006121fb83836121e0565b60208301905092915050565b6000602082019050919050565b600061221f826121b4565b61222981856121bf565b9350612234836121d0565b8060005b8381101561226557815161224c88826121ef565b975061225783612207565b925050600181019050612238565b5085935050505092915050565b6000602082019050818103600083015261228c8184612214565b905092915050565b60008115159050919050565b6122a981612294565b82525050565b60006020820190506122c460008301846122a0565b92915050565b6122d381612115565b82525050565b60006020820190506122ee60008301846122ca565b92915050565b600080fd5b6000601f19601f8301169050919050565b7f4e487b7100000000000000000000000000000000000000000000000000000000600052604160045260246000fd5b612342826122f9565b810181811067ffffffffffffffff821117156123615761236061230a565b5b80604052505050565b60006123746120e1565b90506123808282612339565b919050565b600067ffffffffffffffff8211156123a05761239f61230a565b5b602082029050602081019050919050565b600080fd5b60006123c96123c484612385565b61236a565b905080838252602082019050602084028301858111156123ec576123eb6123b1565b5b835b818110156124155780612401888261213e565b8452602084019350506020810190506123ee565b5050509392505050565b600082601f830112612434576124336122f4565b5b81356124448482602086016123b6565b91505092915050565b61245681612180565b811461246157600080fd5b50565b6000813590506124738161244d565b92915050565b600080604083850312156124905761248f6120eb565b5b600083013567ffffffffffffffff8111156124ae576124ad6120f0565b5b6124ba8582860161241f565b92505060206124cb85828601612464565b9150509250929050565b600080604083850312156124ec576124eb6120eb565b5b60006124fa85828601612464565b925050602061250b85828601612464565b9150509250929050565b60006020828403121561252b5761252a6120eb565b5b600061253984828501612464565b91505092915050565b600060208284031215612558576125576120eb565b5b600082013567ffffffffffffffff811115612576576125756120f0565b5b6125828482850161241f565b91505092915050565b600082825260208201905092915050565b7f6e6f7420656e6f756768206d6f6e65792073656e740000000000000000000000600082015250565b60006125d260158361258b565b91506125dd8261259c565b602082019050919050565b60006020820190508181036000830152612601816125c5565b9050919050565b7f4e6f742077686974656c697374696e675f706572696f642c20506c656173652060008201527f636f6e7461637420746f2041646d696e00000000000000000000000000000000602082015250565b600061266460308361258b565b915061266f82612608565b604082019050919050565b6000602082019050818103600083015261269381612657565b9050919050565b7f4f776e61626c653a2063616c6c6572206973206e6f7420746865206f776e6572600082015250565b60006126d060208361258b565b91506126db8261269a565b602082019050919050565b600060208201905081810360008301526126ff816126c3565b9050919050565b7f4e487b7100000000000000000000000000000000000000000000000000000000600052603260045260246000fd5b7f4e487b7100000000000000000000000000000000000000000000000000000000600052601160045260246000fd5b600061276f82612180565b91507fffffffffffffffffffffffffffffffffffffffffffffffffffffffffffffffff8214156127a2576127a1612735565b5b600182019050919050565b60006040820190506127c260008301856122ca565b6127cf602083018461218a565b9392505050565b7f4f776e61626c653a206e6577206f776e657220697320746865207a65726f206160008201527f6464726573730000000000000000000000000000000000000000000000000000602082015250565b600061283260268361258b565b915061283d826127d6565b604082019050919050565b6000602082019050818103600083015261286181612825565b9050919050565b7f62616c616e6365206973206e696c6c0000000000000000000000000000000000600082015250565b600061289e600f8361258b565b91506128a982612868565b602082019050919050565b600060208201905081810360008301526128cd81612891565b9050919050565b7f4661696c656420746f2073656e64204574686572000000000000000000000000600082015250565b600061290a60148361258b565b9150612915826128d4565b602082019050919050565b60006020820190508181036000830152612939816128fd565b9050919050565b600061294b82612180565b915061295683612180565b9250817fffffffffffffffffffffffffffffffffffffffffffffffffffffffffffffffff048311821515161561298f5761298e612735565b5b828202905092915050565b60006129a582612180565b91506129b083612180565b9250827fffffffffffffffffffffffffffffffffffffffffffffffffffffffffffffffff038211156129e5576129e4612735565b5b828201905092915050565b7f4e487b7100000000000000000000000000000000000000000000000000000000600052601260045260246000fd5b6000612a2a82612180565b9150612a3583612180565b925082612a4557612a446129f0565b5b828204905092915050565b6000612a5b82612180565b9150612a6683612180565b925082821015612a7957612a78612735565b5b82820390509291505056fea264697066735822122035402fd17bfbf8d83857ea952ce05f759e533493dd2a4400a7a9a6e7222b8b4764736f6c63430008080033",
  "immutableReferences": {},
  "source": "// SPDX-License-Identifier: GPL-3.0\r\n\r\n// Created by Al Razzaq\r\n// Name of the project\r\n\r\npragma solidity ^0.8.0;\r\n\r\n\r\nimport \"@openzeppelin/contracts/utils/math/SafeMath.sol\";\r\nimport \"@openzeppelin/contracts/access/Ownable.sol\";\r\n\r\n\r\ncontract RankNFT is Ownable {\r\n    \r\n    using SafeMath for uint256;\r\n  \r\n//*********** Variables *****************\r\n\r\n  uint constant DAY_IN_SECONDS = 86400;\r\n  uint constant MINUTES_IN_SECONDS = 3600;\r\n  address constant private developer = 0x31D165F1123ad9166cBFAC2b11D2F377e824b08B;\r\n  \r\n  uint private costOfSixMonthMemmbership =  0.7 ether;\r\n  uint private costOfOneMonthMemmbership =  0.15 ether;\r\n  uint private costOfSevenDaysMemmbership =  0.06 ether;\r\n  uint private costOfOneDayMemmbership =  0.02 ether;\r\n  \r\n  address[] private whitelistedUsers;\r\n\r\n\r\n//*********** Mappings *****************\r\n\r\n  mapping(address => uint256) public whitelisting_period;\r\n  mapping(address => uint256) public subscription_period;\r\n  \r\n\r\n//*********** Events *****************\r\n  event AmountChanged(address account);\r\n  event MembershipAssigned(address account, uint duration);\r\n\r\n  event WhiteListed(address account, uint duration);\r\n  event BlackListed(address account);\r\n  event PaymentReleased(address to, uint256 amount);\r\n  event PaymentReceived(address from, uint256 amount);\r\n   \r\n  \r\n  function developer_address() public pure returns(address){\r\n    return developer;\r\n  }\r\n\r\n  function set_cost_of_subscription(uint256 _days, uint256 _amount) public onlyOwner{\r\n      require(_days == 1 || _days == 7 || _days == 30 || _days == 180);\r\n      \r\n      if(_days == 1){\r\n        costOfOneDayMemmbership = _amount;\r\n      }\r\n      if(_days == 7){\r\n        costOfSevenDaysMemmbership = _amount;\r\n      }\r\n      if(_days == 30){\r\n        costOfOneMonthMemmbership = _amount;\r\n      }\r\n      if(_days == 180){\r\n        costOfSixMonthMemmbership = _amount;\r\n      }\r\n      \r\n  }\r\n  \r\n  function get_cost_of_subscription(uint256 _days) view public returns(uint) {\r\n      require(_days == 1 || _days == 7 || _days == 30 || _days == 180);\r\n      \r\n      if(_days == 1){\r\n        return costOfOneDayMemmbership;\r\n      }\r\n      if(_days == 7){\r\n        return costOfSevenDaysMemmbership;\r\n      }\r\n      if(_days == 30){\r\n        return costOfOneMonthMemmbership;\r\n      }\r\n      if(_days == 180){\r\n        return costOfSixMonthMemmbership;\r\n      }\r\n      else {\r\n          return 0;\r\n      }\r\n\r\n  }\r\n \r\n\r\n  function assign_subscription(address _user, uint256 _days) internal {\r\n\r\n    whitelistUser(_user, _days);\r\n\r\n    if(subscription_period[_user] > block.timestamp){\r\n        subscription_period[_user] = subscription_period[_user].add(DAY_IN_SECONDS.mul(_days));\r\n        emit MembershipAssigned(_user, subscription_period[_user]);\r\n    }\r\n    else{\r\n        subscription_period[_user] = block.timestamp.add(DAY_IN_SECONDS.mul(_days));\r\n        emit MembershipAssigned(_user, subscription_period[_user]);\r\n\r\n    }\r\n\r\n   distribute_equity();\r\n            \r\n}\r\n\r\n  function whitelistUser(address _user, uint256 _days) internal {\r\n\r\n    if(whitelisting_period[_user] > block.timestamp){\r\n        whitelisting_period[_user] = whitelisting_period[_user].add(DAY_IN_SECONDS.mul(_days));\r\n        emit WhiteListed(_user, whitelisting_period[_user]);\r\n    }\r\n    else {\r\n        whitelistedUsers.push(_user);\r\n        whitelisting_period[_user] = block.timestamp.add(DAY_IN_SECONDS.mul(_days));\r\n        emit WhiteListed(_user, whitelisting_period[_user]);\r\n\r\n    }\r\n    \r\n  }\r\n\r\n  function blacklistUser(address _user) internal {\r\n    delete whitelisting_period[_user];\r\n    delete subscription_period[_user];\r\n    emit BlackListed(_user);\r\n  }\r\n\r\n  \r\n      // free one hour subscription\r\n  function giveaway_subscription(address[] memory _users, uint _hours) public onlyOwner {\r\n    \r\n    for(uint i = 0; i < _users.length; i++){\r\n\r\n        if(whitelisting_period[_users[i]] > block.timestamp){\r\n            whitelisting_period[_users[i]] = whitelisting_period[_users[i]].add(MINUTES_IN_SECONDS.mul(_hours));\r\n            emit WhiteListed(_users[i], whitelisting_period[_users[i]]);\r\n        }\r\n        else {\r\n            whitelistedUsers.push(_users[i]);\r\n            whitelisting_period[_users[i]] = block.timestamp.add(MINUTES_IN_SECONDS.mul(_hours));\r\n            emit WhiteListed(_users[i], whitelisting_period[_users[i]]);\r\n    \r\n        }      \r\n          subscription_period[_users[i]] > block.timestamp ?\r\n                subscription_period[_users[i]] = subscription_period[_users[i]].add(MINUTES_IN_SECONDS.mul(_hours)) :\r\n                subscription_period[_users[i]] = block.timestamp.add(MINUTES_IN_SECONDS.mul(_hours));\r\n                \r\n    }\r\n    \r\n  }\r\n\r\n\r\n\r\n      // Daily subscription\r\n  function get_single_day_subscription() public payable {\r\n\r\n      require(msg.value >= costOfOneDayMemmbership, \"not enough money sent\");\r\n      require(whitelisting_period[msg.sender] > block.timestamp, \"Not whitelisting_period, Please contact to Admin\");\r\n\r\n    assign_subscription(msg.sender, 1);\r\n\r\n  }     \r\n   \r\n      // Weekly subscription\r\n  function get_seven_days_subscription() public payable {\r\n\r\n      require(msg.value >= costOfSevenDaysMemmbership, \"not enough money sent\");\r\n      require(whitelisting_period[msg.sender] >block.timestamp, \"Not whitelisting_period, Please contact to Admin\");\r\n      \r\n      assign_subscription(msg.sender, 7);\r\n\r\n}\r\n\r\n      // Monthly subscription\r\n  function get_one_month_subscription() public payable {\r\n\r\n      require(msg.value >= costOfOneMonthMemmbership, \"not enough money sent\");\r\n      require(whitelisting_period[msg.sender] >block.timestamp, \"Not whitelisting_period, Please contact to Admin\");\r\n\r\n         assign_subscription(msg.sender, 30);\r\n\r\n}\r\n\r\n      // Six Monthl subscription\r\n  function get_six_month_subscription() public payable {\r\n\r\n      require(msg.value >= costOfSixMonthMemmbership, \"not enough money sent\");\r\n      require(whitelisting_period[msg.sender] > block.timestamp, \"Not whitelisting_period, Please contact to Admin\");\r\n\r\n      assign_subscription(msg.sender, 180);\r\n\r\n}\r\n\r\n\r\n  function is_whitelisted(address _address) public view returns (bool) {\r\n    return whitelisting_period[_address] > block.timestamp;\r\n  }\r\n  \r\n  function is_subscriber(address _address) public view returns (bool) {\r\n    return subscription_period[_address] > block.timestamp;\r\n  }\r\n   \r\n \r\n  function whitelist_users(address[] memory _users, uint256 _days) public onlyOwner {\r\n      \r\n    if(_users.length == 1){\r\n        whitelistUser(_users[0], _days);\r\n    }\r\n    else {\r\n        for(uint i = 0; i < _users.length; i++){\r\n            whitelistUser(_users[i], _days);\r\n        }\r\n    }\r\n  }\r\n  \r\n\r\n  function blacklist_users(address[] memory _users) public onlyOwner {\r\n      \r\n    if(_users.length == 1){\r\n        blacklistUser(_users[0]);\r\n    }\r\n    else {\r\n        for(uint i = 0; i < _users.length; i++){\r\n        blacklistUser(_users[i]);\r\n        }\r\n    }\r\n  }\r\n  \r\n  \r\n  function list_of_whitelisted_users() public view returns(address[] memory){\r\n    return whitelistedUsers;\r\n  }\r\n  \r\n  function refresh_list_of_whitelisted_users() public onlyOwner{\r\n      \r\n    address[] memory allWhitelistedUsers = whitelistedUsers;\r\n\r\n    whitelistedUsers = new address[](0);\r\n      \r\n    for(uint i = 0; i < allWhitelistedUsers.length; i++){\r\n        if( whitelisting_period[allWhitelistedUsers[i]] >  block.timestamp){\r\n            whitelistedUsers.push(allWhitelistedUsers[i]);\r\n        }\r\n    }\r\n  }\r\n  \r\n  \r\n  function total_balance_available() public view returns(uint256) {\r\n        return  address(this).balance;\r\n  }\r\n    \r\n  \r\n  function withdraw_total_amount() public onlyOwner {\r\n      distribute_equity();\r\n  }\r\n \r\n    \r\n  function distribute_equity() internal {\r\n        \r\n        uint256 totalamount =  address(this).balance;\r\n        require(totalamount > 0, \"balance is nill\");\r\n\r\n        address owner = owner();\r\n        \r\n        // distribute owner's 85% cut\r\n        uint256 ownersCut =  totalamount.mul(85).div(100);     \r\n        bool sentOwner = payable(owner).send(ownersCut);\r\n        require(sentOwner, \"Failed to send Ether\");\r\n        emit PaymentReleased(owner, ownersCut);\r\n        \r\n        // distribute remaining 15% to developer\r\n        uint developersCut = totalamount.sub(ownersCut);\r\n        bool sentDeveloper = payable(developer).send(developersCut);\r\n        require(sentDeveloper, \"Failed to send Ether\");\r\n        emit PaymentReleased(developer, developersCut);\r\n        \r\n    }\r\n  \r\n}",
  "sourcePath": "D:\\Fiverr\\rankingApp\\backend\\contracts\\RankNFT.sol",
  "compiler": {
    "name": "solc",
    "version": "0.8.8+commit.dddeac2f.Emscripten.clang"
  },
  "schemaVersion": "3.4.3",
  "updatedAt": "2021-09-28T21:37:32.366Z",
  "devdoc": {
    "kind": "dev",
    "methods": {
      "owner()": {
        "details": "Returns the address of the current owner."
      },
      "renounceOwnership()": {
        "details": "Leaves the contract without owner. It will not be possible to call `onlyOwner` functions anymore. Can only be called by the current owner. NOTE: Renouncing ownership will leave the contract without an owner, thereby removing any functionality that is only available to the owner."
      },
      "transferOwnership(address)": {
        "details": "Transfers ownership of the contract to a new account (`newOwner`). Can only be called by the current owner."
      }
    },
    "version": 1
  },
  "userdoc": {
    "kind": "user",
    "methods": {},
    "version": 1
  }
}