{
  "contractName": "RankNFT",
  "abi": [
    {
      "anonymous": false,
      "inputs": [
        {
          "indexed": false,
          "internalType": "address",
          "name": "account",
          "type": "address"
        }
      ],
      "name": "AmountChanged",
      "type": "event"
    },
    {
      "anonymous": false,
      "inputs": [
        {
          "indexed": false,
          "internalType": "address",
          "name": "account",
          "type": "address"
        }
      ],
      "name": "BlackListed",
      "type": "event"
    },
    {
      "anonymous": false,
      "inputs": [
        {
          "indexed": false,
          "internalType": "address",
          "name": "account",
          "type": "address"
        },
        {
          "indexed": false,
          "internalType": "uint256",
          "name": "duration",
          "type": "uint256"
        }
      ],
      "name": "MembershipAssigned",
      "type": "event"
    },
    {
      "anonymous": false,
      "inputs": [
        {
          "indexed": true,
          "internalType": "address",
          "name": "previousOwner",
          "type": "address"
        },
        {
          "indexed": true,
          "internalType": "address",
          "name": "newOwner",
          "type": "address"
        }
      ],
      "name": "OwnershipTransferred",
      "type": "event"
    },
    {
      "anonymous": false,
      "inputs": [
        {
          "indexed": false,
          "internalType": "address",
          "name": "from",
          "type": "address"
        },
        {
          "indexed": false,
          "internalType": "uint256",
          "name": "amount",
          "type": "uint256"
        }
      ],
      "name": "PaymentReceived",
      "type": "event"
    },
    {
      "anonymous": false,
      "inputs": [
        {
          "indexed": false,
          "internalType": "address",
          "name": "to",
          "type": "address"
        },
        {
          "indexed": false,
          "internalType": "uint256",
          "name": "amount",
          "type": "uint256"
        }
      ],
      "name": "PaymentReleased",
      "type": "event"
    },
    {
      "anonymous": false,
      "inputs": [
        {
          "indexed": false,
          "internalType": "address",
          "name": "account",
          "type": "address"
        },
        {
          "indexed": false,
          "internalType": "uint256",
          "name": "duration",
          "type": "uint256"
        }
      ],
      "name": "WhiteListed",
      "type": "event"
    },
    {
      "inputs": [],
      "name": "owner",
      "outputs": [
        {
          "internalType": "address",
          "name": "",
          "type": "address"
        }
      ],
      "stateMutability": "view",
      "type": "function"
    },
    {
      "inputs": [],
      "name": "renounceOwnership",
      "outputs": [],
      "stateMutability": "nonpayable",
      "type": "function"
    },
    {
      "inputs": [
        {
          "internalType": "address",
          "name": "",
          "type": "address"
        }
      ],
      "name": "subscription_period",
      "outputs": [
        {
          "internalType": "uint256",
          "name": "",
          "type": "uint256"
        }
      ],
      "stateMutability": "view",
      "type": "function"
    },
    {
      "inputs": [
        {
          "internalType": "address",
          "name": "newOwner",
          "type": "address"
        }
      ],
      "name": "transferOwnership",
      "outputs": [],
      "stateMutability": "nonpayable",
      "type": "function"
    },
    {
      "inputs": [
        {
          "internalType": "address",
          "name": "",
          "type": "address"
        }
      ],
      "name": "whitelisting_period",
      "outputs": [
        {
          "internalType": "uint256",
          "name": "",
          "type": "uint256"
        }
      ],
      "stateMutability": "view",
      "type": "function"
    },
    {
      "inputs": [
        {
          "internalType": "uint256",
          "name": "_days",
          "type": "uint256"
        },
        {
          "internalType": "uint256",
          "name": "_amount",
          "type": "uint256"
        }
      ],
      "name": "set_cost_of_subscription",
      "outputs": [],
      "stateMutability": "nonpayable",
      "type": "function"
    },
    {
      "inputs": [
        {
          "internalType": "uint256",
          "name": "_days",
          "type": "uint256"
        }
      ],
      "name": "get_cost_of_subscription",
      "outputs": [
        {
          "internalType": "uint256",
          "name": "",
          "type": "uint256"
        }
      ],
      "stateMutability": "view",
      "type": "function"
    },
    {
      "inputs": [],
      "name": "get_single_minute_subscription",
      "outputs": [],
      "stateMutability": "payable",
      "type": "function"
    },
    {
      "inputs": [],
      "name": "get_single_day_subscription",
      "outputs": [],
      "stateMutability": "payable",
      "type": "function"
    },
    {
      "inputs": [],
      "name": "get_seven_days_subscription",
      "outputs": [],
      "stateMutability": "payable",
      "type": "function"
    },
    {
      "inputs": [],
      "name": "get_one_month_subscription",
      "outputs": [],
      "stateMutability": "payable",
      "type": "function"
    },
    {
      "inputs": [],
      "name": "get_six_month_subscription",
      "outputs": [],
      "stateMutability": "payable",
      "type": "function"
    },
    {
      "inputs": [
        {
          "internalType": "address",
          "name": "_address",
          "type": "address"
        }
      ],
      "name": "is_whitelisted",
      "outputs": [
        {
          "internalType": "bool",
          "name": "",
          "type": "bool"
        }
      ],
      "stateMutability": "view",
      "type": "function"
    },
    {
      "inputs": [
        {
          "internalType": "address",
          "name": "_address",
          "type": "address"
        }
      ],
      "name": "is_subscriber",
      "outputs": [
        {
          "internalType": "bool",
          "name": "",
          "type": "bool"
        }
      ],
      "stateMutability": "view",
      "type": "function"
    },
    {
      "inputs": [
        {
          "internalType": "address[]",
          "name": "_users",
          "type": "address[]"
        },
        {
          "internalType": "uint256",
          "name": "_days",
          "type": "uint256"
        }
      ],
      "name": "whitelist_users",
      "outputs": [],
      "stateMutability": "nonpayable",
      "type": "function"
    },
    {
      "inputs": [
        {
          "internalType": "address[]",
          "name": "_users",
          "type": "address[]"
        }
      ],
      "name": "blacklist_users",
      "outputs": [],
      "stateMutability": "nonpayable",
      "type": "function"
    },
    {
      "inputs": [],
      "name": "list_of_whitelisted_users",
      "outputs": [
        {
          "internalType": "address[]",
          "name": "",
          "type": "address[]"
        }
      ],
      "stateMutability": "view",
      "type": "function"
    },
    {
      "inputs": [],
      "name": "refresh_list_of_whitelisted_users",
      "outputs": [],
      "stateMutability": "nonpayable",
      "type": "function"
    },
    {
      "inputs": [],
      "name": "total_balance_available",
      "outputs": [
        {
          "internalType": "uint256",
          "name": "",
          "type": "uint256"
        }
      ],
      "stateMutability": "view",
      "type": "function"
    },
    {
      "inputs": [],
      "name": "withdraw_total_amount",
      "outputs": [],
      "stateMutability": "nonpayable",
      "type": "function"
    }
  ],
  "bytecode": "0x60806040526709b6e64a8ec60000600155670214e8348c4f000060025566d529ae9e86000060035566470de4df8200006004553480156200003f57600080fd5b5062000060620000546200006660201b60201c565b6200006e60201b60201c565b62000132565b600033905090565b60008060009054906101000a900473ffffffffffffffffffffffffffffffffffffffff169050816000806101000a81548173ffffffffffffffffffffffffffffffffffffffff021916908373ffffffffffffffffffffffffffffffffffffffff1602179055508173ffffffffffffffffffffffffffffffffffffffff168173ffffffffffffffffffffffffffffffffffffffff167f8be0079c531659141344cd1fd0a4f28419497f9722a3daafe3b4186f6b6457e060405160405180910390a35050565b61281c80620001426000396000f3fe60806040526004361061011e5760003560e01c8063b2be357e116100a0578063e6d31a3f11610064578063e6d31a3f1461032e578063e7c33cdd14610338578063e8972de014610361578063f2fde38b1461039e578063fe3912f4146103c75761011e565b8063b2be357e14610290578063b88a9b281461029a578063c45dca49146102c3578063de2acea4146102da578063e4229788146102f15761011e565b80636bb29bbc116100e75780636bb29bbc146101a9578063715018a6146101d457806373fdea4c146101eb578063779ee628146102285780638da5cb5b146102655761011e565b80628937c5146101235780630a76b31f1461012d57806329a460a5146101375780633583a0bf146101415780633ce22cf01461017e575b600080fd5b61012b6103f0565b005b6101356104c3565b005b61013f610596565b005b34801561014d57600080fd5b5061016860048036038101906101639190611f04565b610669565b6040516101759190612308565b60405180910390f35b34801561018a57600080fd5b50610193610681565b6040516101a09190612308565b60405180910390f35b3480156101b557600080fd5b506101be610689565b6040516101cb919061220b565b60405180910390f35b3480156101e057600080fd5b506101e9610717565b005b3480156101f757600080fd5b50610212600480360381019061020d9190611f04565b61079f565b60405161021f9190612308565b60405180910390f35b34801561023457600080fd5b5061024f600480360381019061024a9190611f04565b6107b7565b60405161025c919061222d565b60405180910390f35b34801561027157600080fd5b5061027a610802565b60405161028791906121c7565b60405180910390f35b61029861082b565b005b3480156102a657600080fd5b506102c160048036038101906102bc9190611f7a565b610bfa565b005b3480156102cf57600080fd5b506102d8610cf3565b005b3480156102e657600080fd5b506102ef610d79565b005b3480156102fd57600080fd5b5061031860048036038101906103139190611f04565b610fe2565b604051610325919061222d565b60405180910390f35b61033661102d565b005b34801561034457600080fd5b5061035f600480360381019061035a9190612003565b611100565b005b34801561036d57600080fd5b5061038860048036038101906103839190611fd6565b6111f2565b6040516103959190612308565b60405180910390f35b3480156103aa57600080fd5b506103c560048036038101906103c09190611f04565b611278565b005b3480156103d357600080fd5b506103ee60048036038101906103e99190611f31565b611370565b005b600354341015610435576040517f08c379a000000000000000000000000000000000000000000000000000000000815260040161042c906122e8565b60405180910390fd5b42600660003373ffffffffffffffffffffffffffffffffffffffff1673ffffffffffffffffffffffffffffffffffffffff16815260200190815260200160002054116104b6576040517f08c379a00000000000000000000000000000000000000000000000000000000081526004016104ad906122c8565b60405180910390fd5b6104c1336007611466565b565b600254341015610508576040517f08c379a00000000000000000000000000000000000000000000000000000000081526004016104ff906122e8565b60405180910390fd5b42600660003373ffffffffffffffffffffffffffffffffffffffff1673ffffffffffffffffffffffffffffffffffffffff1681526020019081526020016000205411610589576040517f08c379a0000000000000000000000000000000000000000000000000000000008152600401610580906122c8565b60405180910390fd5b61059433601e611466565b565b6004543410156105db576040517f08c379a00000000000000000000000000000000000000000000000000000000081526004016105d2906122e8565b60405180910390fd5b42600660003373ffffffffffffffffffffffffffffffffffffffff1673ffffffffffffffffffffffffffffffffffffffff168152602001908152602001600020541161065c576040517f08c379a0000000000000000000000000000000000000000000000000000000008152600401610653906122c8565b60405180910390fd5b610667336001611466565b565b60066020528060005260406000206000915090505481565b600047905090565b6060600580548060200260200160405190810160405280929190818152602001828054801561070d57602002820191906000526020600020905b8160009054906101000a900473ffffffffffffffffffffffffffffffffffffffff1673ffffffffffffffffffffffffffffffffffffffff16815260200190600101908083116106c3575b5050505050905090565b61071f6116ce565b73ffffffffffffffffffffffffffffffffffffffff1661073d610802565b73ffffffffffffffffffffffffffffffffffffffff1614610793576040517f08c379a000000000000000000000000000000000000000000000000000000000815260040161078a906122a8565b60405180910390fd5b61079d60006116d6565b565b60076020528060005260406000206000915090505481565b600042600660008473ffffffffffffffffffffffffffffffffffffffff1673ffffffffffffffffffffffffffffffffffffffff16815260200190815260200160002054119050919050565b60008060009054906101000a900473ffffffffffffffffffffffffffffffffffffffff16905090565b42600660003373ffffffffffffffffffffffffffffffffffffffff1673ffffffffffffffffffffffffffffffffffffffff168152602001908152602001600020541115610985576108c5603c600660003373ffffffffffffffffffffffffffffffffffffffff1673ffffffffffffffffffffffffffffffffffffffff1681526020019081526020016000205461179a90919063ffffffff16565b600660003373ffffffffffffffffffffffffffffffffffffffff1673ffffffffffffffffffffffffffffffffffffffff168152602001908152602001600020819055507fe0d7b08efc3ef6fb0431d2ada2315c95801655a6f35ba4346debea896c9ab40933600660003373ffffffffffffffffffffffffffffffffffffffff1673ffffffffffffffffffffffffffffffffffffffff168152602001908152602001600020546040516109789291906121e2565b60405180910390a1610ab8565b6005339080600181540180825580915050600190039060005260206000200160009091909190916101000a81548173ffffffffffffffffffffffffffffffffffffffff021916908373ffffffffffffffffffffffffffffffffffffffff1602179055506109fc603c4261179a90919063ffffffff16565b600660003373ffffffffffffffffffffffffffffffffffffffff1673ffffffffffffffffffffffffffffffffffffffff168152602001908152602001600020819055507fe0d7b08efc3ef6fb0431d2ada2315c95801655a6f35ba4346debea896c9ab40933600660003373ffffffffffffffffffffffffffffffffffffffff1673ffffffffffffffffffffffffffffffffffffffff16815260200190815260200160002054604051610aaf9291906121e2565b60405180910390a15b42600760003373ffffffffffffffffffffffffffffffffffffffff1673ffffffffffffffffffffffffffffffffffffffff1681526020019081526020016000205411610b5957610b12603c4261179a90919063ffffffff16565b600760003373ffffffffffffffffffffffffffffffffffffffff1673ffffffffffffffffffffffffffffffffffffffff168152602001908152602001600020819055610bef565b610bac603c600760003373ffffffffffffffffffffffffffffffffffffffff1673ffffffffffffffffffffffffffffffffffffffff1681526020019081526020016000205461179a90919063ffffffff16565b600760003373ffffffffffffffffffffffffffffffffffffffff1673ffffffffffffffffffffffffffffffffffffffff1681526020019081526020016000208190555b50610bf86117b0565b565b610c026116ce565b73ffffffffffffffffffffffffffffffffffffffff16610c20610802565b73ffffffffffffffffffffffffffffffffffffffff1614610c76576040517f08c379a0000000000000000000000000000000000000000000000000000000008152600401610c6d906122a8565b60405180910390fd5b600182511415610caa57610ca582600081518110610c9757610c966125f3565b5b6020026020010151826119da565b610cef565b60005b8251811015610ced57610cda838281518110610ccc57610ccb6125f3565b5b6020026020010151836119da565b8080610ce59061254c565b915050610cad565b505b5050565b610cfb6116ce565b73ffffffffffffffffffffffffffffffffffffffff16610d19610802565b73ffffffffffffffffffffffffffffffffffffffff1614610d6f576040517f08c379a0000000000000000000000000000000000000000000000000000000008152600401610d66906122a8565b60405180910390fd5b610d776117b0565b565b610d816116ce565b73ffffffffffffffffffffffffffffffffffffffff16610d9f610802565b73ffffffffffffffffffffffffffffffffffffffff1614610df5576040517f08c379a0000000000000000000000000000000000000000000000000000000008152600401610dec906122a8565b60405180910390fd5b60006005805480602002602001604051908101604052809291908181526020018280548015610e7957602002820191906000526020600020905b8160009054906101000a900473ffffffffffffffffffffffffffffffffffffffff1673ffffffffffffffffffffffffffffffffffffffff1681526020019060010190808311610e2f575b50505050509050600067ffffffffffffffff811115610e9b57610e9a612622565b5b604051908082528060200260200182016040528015610ec95781602001602082028036833780820191505090505b5060059080519060200190610edf929190611d95565b5060005b8151811015610fde574260066000848481518110610f0457610f036125f3565b5b602002602001015173ffffffffffffffffffffffffffffffffffffffff1673ffffffffffffffffffffffffffffffffffffffff168152602001908152602001600020541115610fcb576005828281518110610f6257610f616125f3565b5b60200260200101519080600181540180825580915050600190039060005260206000200160009091909190916101000a81548173ffffffffffffffffffffffffffffffffffffffff021916908373ffffffffffffffffffffffffffffffffffffffff1602179055505b8080610fd69061254c565b915050610ee3565b5050565b600042600760008473ffffffffffffffffffffffffffffffffffffffff1673ffffffffffffffffffffffffffffffffffffffff16815260200190815260200160002054119050919050565b600154341015611072576040517f08c379a0000000000000000000000000000000000000000000000000000000008152600401611069906122e8565b60405180910390fd5b42600660003373ffffffffffffffffffffffffffffffffffffffff1673ffffffffffffffffffffffffffffffffffffffff16815260200190815260200160002054116110f3576040517f08c379a00000000000000000000000000000000000000000000000000000000081526004016110ea906122c8565b60405180910390fd5b6110fe3360b4611466565b565b6111086116ce565b73ffffffffffffffffffffffffffffffffffffffff16611126610802565b73ffffffffffffffffffffffffffffffffffffffff161461117c576040517f08c379a0000000000000000000000000000000000000000000000000000000008152600401611173906122a8565b60405180910390fd5b600182148061118b5750600782145b806111965750601e82145b806111a1575060b482145b6111aa57600080fd5b60018214156111bb57806004819055505b60078214156111cc57806003819055505b601e8214156111dd57806002819055505b60b48214156111ee57806001819055505b5050565b600060018214806112035750600782145b8061120e5750601e82145b80611219575060b482145b61122257600080fd5b6001821415611235576004549050611273565b6007821415611248576003549050611273565b601e82141561125b576002549050611273565b60b482141561126e576001549050611273565b600090505b919050565b6112806116ce565b73ffffffffffffffffffffffffffffffffffffffff1661129e610802565b73ffffffffffffffffffffffffffffffffffffffff16146112f4576040517f08c379a00000000000000000000000000000000000000000000000000000000081526004016112eb906122a8565b60405180910390fd5b600073ffffffffffffffffffffffffffffffffffffffff168173ffffffffffffffffffffffffffffffffffffffff161415611364576040517f08c379a000000000000000000000000000000000000000000000000000000000815260040161135b90612248565b60405180910390fd5b61136d816116d6565b50565b6113786116ce565b73ffffffffffffffffffffffffffffffffffffffff16611396610802565b73ffffffffffffffffffffffffffffffffffffffff16146113ec576040517f08c379a00000000000000000000000000000000000000000000000000000000081526004016113e3906122a8565b60405180910390fd5b60018151141561141f5761141a8160008151811061140d5761140c6125f3565b5b6020026020010151611c93565b611463565b60005b81518110156114615761144e828281518110611441576114406125f3565b5b6020026020010151611c93565b80806114599061254c565b915050611422565b505b50565b61147082826119da565b42600760008473ffffffffffffffffffffffffffffffffffffffff1673ffffffffffffffffffffffffffffffffffffffff1681526020019081526020016000205411156115de5761151e6114d08262015180611d5390919063ffffffff16565b600760008573ffffffffffffffffffffffffffffffffffffffff1673ffffffffffffffffffffffffffffffffffffffff1681526020019081526020016000205461179a90919063ffffffff16565b600760008473ffffffffffffffffffffffffffffffffffffffff1673ffffffffffffffffffffffffffffffffffffffff168152602001908152602001600020819055507f64d66f1ede5d6edc9563a68db3244db6e42c247b4dd4813ee2f2606c5770e2e982600760008573ffffffffffffffffffffffffffffffffffffffff1673ffffffffffffffffffffffffffffffffffffffff168152602001908152602001600020546040516115d19291906121e2565b60405180910390a16116c2565b6116066115f78262015180611d5390919063ffffffff16565b4261179a90919063ffffffff16565b600760008473ffffffffffffffffffffffffffffffffffffffff1673ffffffffffffffffffffffffffffffffffffffff168152602001908152602001600020819055507f64d66f1ede5d6edc9563a68db3244db6e42c247b4dd4813ee2f2606c5770e2e982600760008573ffffffffffffffffffffffffffffffffffffffff1673ffffffffffffffffffffffffffffffffffffffff168152602001908152602001600020546040516116b99291906121e2565b60405180910390a15b6116ca6117b0565b5050565b600033905090565b60008060009054906101000a900473ffffffffffffffffffffffffffffffffffffffff169050816000806101000a81548173ffffffffffffffffffffffffffffffffffffffff021916908373ffffffffffffffffffffffffffffffffffffffff1602179055508173ffffffffffffffffffffffffffffffffffffffff168173ffffffffffffffffffffffffffffffffffffffff167f8be0079c531659141344cd1fd0a4f28419497f9722a3daafe3b4186f6b6457e060405160405180910390a35050565b600081836117a891906123be565b905092915050565b6000479050600081116117f8576040517f08c379a00000000000000000000000000000000000000000000000000000000081526004016117ef90612288565b60405180910390fd5b6000611802610802565b9050600061182d606461181f605586611d5390919063ffffffff16565b611d6990919063ffffffff16565b905060008273ffffffffffffffffffffffffffffffffffffffff166108fc839081150290604051600060405180830381858888f193505050509050806118a8576040517f08c379a000000000000000000000000000000000000000000000000000000000815260040161189f90612268565b60405180910390fd5b7fdf20fd1e76bc69d672e4814fafb2c449bba3a5369d8359adf9e05e6fde87b05683836040516118d99291906121e2565b60405180910390a160006118f68386611d7f90919063ffffffff16565b9050600073cc83995be4c3c29bbf8a99e99444c63a9149462073ffffffffffffffffffffffffffffffffffffffff166108fc839081150290604051600060405180830381858888f19350505050905080611985576040517f08c379a000000000000000000000000000000000000000000000000000000000815260040161197c90612268565b60405180910390fd5b7fdf20fd1e76bc69d672e4814fafb2c449bba3a5369d8359adf9e05e6fde87b05673cc83995be4c3c29bbf8a99e99444c63a91494620836040516119ca9291906121e2565b60405180910390a1505050505050565b42600660008473ffffffffffffffffffffffffffffffffffffffff1673ffffffffffffffffffffffffffffffffffffffff168152602001908152602001600020541115611b4857611a88611a3a8262015180611d5390919063ffffffff16565b600660008573ffffffffffffffffffffffffffffffffffffffff1673ffffffffffffffffffffffffffffffffffffffff1681526020019081526020016000205461179a90919063ffffffff16565b600660008473ffffffffffffffffffffffffffffffffffffffff1673ffffffffffffffffffffffffffffffffffffffff168152602001908152602001600020819055507fe0d7b08efc3ef6fb0431d2ada2315c95801655a6f35ba4346debea896c9ab40982600660008573ffffffffffffffffffffffffffffffffffffffff1673ffffffffffffffffffffffffffffffffffffffff16815260200190815260200160002054604051611b3b9291906121e2565b60405180910390a1611c8f565b6005829080600181540180825580915050600190039060005260206000200160009091909190916101000a81548173ffffffffffffffffffffffffffffffffffffffff021916908373ffffffffffffffffffffffffffffffffffffffff160217905550611bd3611bc48262015180611d5390919063ffffffff16565b4261179a90919063ffffffff16565b600660008473ffffffffffffffffffffffffffffffffffffffff1673ffffffffffffffffffffffffffffffffffffffff168152602001908152602001600020819055507fe0d7b08efc3ef6fb0431d2ada2315c95801655a6f35ba4346debea896c9ab40982600660008573ffffffffffffffffffffffffffffffffffffffff1673ffffffffffffffffffffffffffffffffffffffff16815260200190815260200160002054604051611c869291906121e2565b60405180910390a15b5050565b600660008273ffffffffffffffffffffffffffffffffffffffff1673ffffffffffffffffffffffffffffffffffffffff16815260200190815260200160002060009055600760008273ffffffffffffffffffffffffffffffffffffffff1673ffffffffffffffffffffffffffffffffffffffff168152602001908152602001600020600090557f7fd26be6fc92aff63f1f4409b2b2ddeb272a888031d7f55ec830485ec619418681604051611d4891906121c7565b60405180910390a150565b60008183611d619190612445565b905092915050565b60008183611d779190612414565b905092915050565b60008183611d8d919061249f565b905092915050565b828054828255906000526020600020908101928215611e0e579160200282015b82811115611e0d5782518260006101000a81548173ffffffffffffffffffffffffffffffffffffffff021916908373ffffffffffffffffffffffffffffffffffffffff16021790555091602001919060010190611db5565b5b509050611e1b9190611e1f565b5090565b5b80821115611e38576000816000905550600101611e20565b5090565b6000611e4f611e4a84612348565b612323565b90508083825260208201905082856020860282011115611e7257611e71612656565b5b60005b85811015611ea25781611e888882611eac565b845260208401935060208301925050600181019050611e75565b5050509392505050565b600081359050611ebb816127b8565b92915050565b600082601f830112611ed657611ed5612651565b5b8135611ee6848260208601611e3c565b91505092915050565b600081359050611efe816127cf565b92915050565b600060208284031215611f1a57611f19612660565b5b6000611f2884828501611eac565b91505092915050565b600060208284031215611f4757611f46612660565b5b600082013567ffffffffffffffff811115611f6557611f6461265b565b5b611f7184828501611ec1565b91505092915050565b60008060408385031215611f9157611f90612660565b5b600083013567ffffffffffffffff811115611faf57611fae61265b565b5b611fbb85828601611ec1565b9250506020611fcc85828601611eef565b9150509250929050565b600060208284031215611fec57611feb612660565b5b6000611ffa84828501611eef565b91505092915050565b6000806040838503121561201a57612019612660565b5b600061202885828601611eef565b925050602061203985828601611eef565b9150509250929050565b600061204f838361205b565b60208301905092915050565b612064816124d3565b82525050565b612073816124d3565b82525050565b600061208482612384565b61208e818561239c565b935061209983612374565b8060005b838110156120ca5781516120b18882612043565b97506120bc8361238f565b92505060018101905061209d565b5085935050505092915050565b6120e0816124e5565b82525050565b60006120f36026836123ad565b91506120fe82612676565b604082019050919050565b60006121166014836123ad565b9150612121826126c5565b602082019050919050565b6000612139600f836123ad565b9150612144826126ee565b602082019050919050565b600061215c6020836123ad565b915061216782612717565b602082019050919050565b600061217f6030836123ad565b915061218a82612740565b604082019050919050565b60006121a26015836123ad565b91506121ad8261278f565b602082019050919050565b6121c181612511565b82525050565b60006020820190506121dc600083018461206a565b92915050565b60006040820190506121f7600083018561206a565b61220460208301846121b8565b9392505050565b600060208201905081810360008301526122258184612079565b905092915050565b600060208201905061224260008301846120d7565b92915050565b60006020820190508181036000830152612261816120e6565b9050919050565b6000602082019050818103600083015261228181612109565b9050919050565b600060208201905081810360008301526122a18161212c565b9050919050565b600060208201905081810360008301526122c18161214f565b9050919050565b600060208201905081810360008301526122e181612172565b9050919050565b6000602082019050818103600083015261230181612195565b9050919050565b600060208201905061231d60008301846121b8565b92915050565b600061232d61233e565b9050612339828261251b565b919050565b6000604051905090565b600067ffffffffffffffff82111561236357612362612622565b5b602082029050602081019050919050565b6000819050602082019050919050565b600081519050919050565b6000602082019050919050565b600082825260208201905092915050565b600082825260208201905092915050565b60006123c982612511565b91506123d483612511565b9250827fffffffffffffffffffffffffffffffffffffffffffffffffffffffffffffffff0382111561240957612408612595565b5b828201905092915050565b600061241f82612511565b915061242a83612511565b92508261243a576124396125c4565b5b828204905092915050565b600061245082612511565b915061245b83612511565b9250817fffffffffffffffffffffffffffffffffffffffffffffffffffffffffffffffff048311821515161561249457612493612595565b5b828202905092915050565b60006124aa82612511565b91506124b583612511565b9250828210156124c8576124c7612595565b5b828203905092915050565b60006124de826124f1565b9050919050565b60008115159050919050565b600073ffffffffffffffffffffffffffffffffffffffff82169050919050565b6000819050919050565b61252482612665565b810181811067ffffffffffffffff8211171561254357612542612622565b5b80604052505050565b600061255782612511565b91507fffffffffffffffffffffffffffffffffffffffffffffffffffffffffffffffff82141561258a57612589612595565b5b600182019050919050565b7f4e487b7100000000000000000000000000000000000000000000000000000000600052601160045260246000fd5b7f4e487b7100000000000000000000000000000000000000000000000000000000600052601260045260246000fd5b7f4e487b7100000000000000000000000000000000000000000000000000000000600052603260045260246000fd5b7f4e487b7100000000000000000000000000000000000000000000000000000000600052604160045260246000fd5b600080fd5b600080fd5b600080fd5b600080fd5b6000601f19601f8301169050919050565b7f4f776e61626c653a206e6577206f776e657220697320746865207a65726f206160008201527f6464726573730000000000000000000000000000000000000000000000000000602082015250565b7f4661696c656420746f2073656e64204574686572000000000000000000000000600082015250565b7f62616c616e6365206973206e696c6c0000000000000000000000000000000000600082015250565b7f4f776e61626c653a2063616c6c6572206973206e6f7420746865206f776e6572600082015250565b7f4e6f742077686974656c697374696e675f706572696f642c20506c656173652060008201527f636f6e7461637420746f2041646d696e00000000000000000000000000000000602082015250565b7f6e6f7420656e6f756768206d6f6e65792073656e740000000000000000000000600082015250565b6127c1816124d3565b81146127cc57600080fd5b50565b6127d881612511565b81146127e357600080fd5b5056fea264697066735822122049fd1270bb9d8fa19f5736e28e18da48dc8d707386c15c48a9a5cb713a2fb7ef64736f6c63430008070033",
  "immutableReferences": {},
  "source": "// SPDX-License-Identifier: GPL-3.0\r\n\r\n// Created by Al Razzaq\r\n// Name of the project\r\n\r\npragma solidity ^0.8.0;\r\n\r\n\r\nimport \"@openzeppelin/contracts/utils/math/SafeMath.sol\";\r\nimport \"@openzeppelin/contracts/access/Ownable.sol\";\r\n\r\n\r\ncontract RankNFT is Ownable {\r\n    \r\n    using SafeMath for uint256;\r\n  \r\n//*********** Variables *****************\r\n\r\n  uint constant DAY_IN_SECONDS = 86400;\r\n  address constant private developer = 0xcc83995bE4C3c29BBf8a99E99444c63A91494620;\r\n  \r\n  uint private costOfSixMonthMemmbership =  0.7 ether;\r\n  uint private costOfOneMonthMemmbership =  0.15 ether;\r\n  uint private costOfSevenDaysMemmbership =  0.06 ether;\r\n  uint private costOfOneDayMemmbership =  0.02 ether;\r\n  \r\n  address[] private whitelistedUsers;\r\n\r\n\r\n//*********** Mappings *****************\r\n\r\n  mapping(address => uint256) public whitelisting_period;\r\n  mapping(address => uint256) public subscription_period;\r\n  \r\n\r\n//*********** Events *****************\r\n  event AmountChanged(address account);\r\n  event MembershipAssigned(address account, uint duration);\r\n\r\n  event WhiteListed(address account, uint duration);\r\n  event BlackListed(address account);\r\n  event PaymentReleased(address to, uint256 amount);\r\n  event PaymentReceived(address from, uint256 amount);\r\n  \r\n  \r\n\r\n  function set_cost_of_subscription(uint256 _days, uint256 _amount) public onlyOwner{\r\n      require(_days == 1 || _days == 7 || _days == 30 || _days == 180);\r\n      \r\n      if(_days == 1){\r\n        costOfOneDayMemmbership = _amount;\r\n      }\r\n      if(_days == 7){\r\n        costOfSevenDaysMemmbership = _amount;\r\n      }\r\n      if(_days == 30){\r\n        costOfOneMonthMemmbership = _amount;\r\n      }\r\n      if(_days == 180){\r\n        costOfSixMonthMemmbership = _amount;\r\n      }\r\n      \r\n  }\r\n  \r\n  function get_cost_of_subscription(uint256 _days) view public returns(uint) {\r\n      require(_days == 1 || _days == 7 || _days == 30 || _days == 180);\r\n      \r\n      if(_days == 1){\r\n        return costOfOneDayMemmbership;\r\n      }\r\n      if(_days == 7){\r\n        return costOfSevenDaysMemmbership;\r\n      }\r\n      if(_days == 30){\r\n        return costOfOneMonthMemmbership;\r\n      }\r\n      if(_days == 180){\r\n        return costOfSixMonthMemmbership;\r\n      }\r\n      else {\r\n          return 0;\r\n      }\r\n\r\n  }\r\n \r\n\r\n  function assign_subscription(address _user, uint256 _days) internal {\r\n\r\n    whitelistUser(_user, _days);\r\n\r\n    if(subscription_period[_user] > block.timestamp){\r\n        subscription_period[_user] = subscription_period[_user].add(DAY_IN_SECONDS.mul(_days));\r\n        emit MembershipAssigned(_user, subscription_period[_user]);\r\n    }\r\n    else{\r\n        subscription_period[_user] = block.timestamp.add(DAY_IN_SECONDS.mul(_days));\r\n        emit MembershipAssigned(_user, subscription_period[_user]);\r\n\r\n    }\r\n\r\n   distribute_equity();\r\n            \r\n}\r\n\r\n  function whitelistUser(address _user, uint256 _days) internal {\r\n\r\n    if(whitelisting_period[_user] > block.timestamp){\r\n        whitelisting_period[_user] = whitelisting_period[_user].add(DAY_IN_SECONDS.mul(_days));\r\n        emit WhiteListed(_user, whitelisting_period[_user]);\r\n    }\r\n    else {\r\n        whitelistedUsers.push(_user);\r\n        whitelisting_period[_user] = block.timestamp.add(DAY_IN_SECONDS.mul(_days));\r\n        emit WhiteListed(_user, whitelisting_period[_user]);\r\n\r\n    }\r\n    \r\n  }\r\n\r\n  function blacklistUser(address _user) internal {\r\n    delete whitelisting_period[_user];\r\n    delete subscription_period[_user];\r\n    emit BlackListed(_user);\r\n  }\r\n\r\n      // one minute subscription\r\n  function get_single_minute_subscription() public payable {\r\n\r\n    //   require(msg.value >= 0.01 ether, \"not enough money sent\");\r\n    //   require(whitelisting_period[msg.sender] > block.timestamp, \"Not whitelisting_period, Please contact to Admin\");\r\n\r\n    if(whitelisting_period[msg.sender] > block.timestamp){\r\n        whitelisting_period[msg.sender] = whitelisting_period[msg.sender].add(60);\r\n        emit WhiteListed(msg.sender, whitelisting_period[msg.sender]);\r\n    }\r\n    else {\r\n        whitelistedUsers.push(msg.sender);\r\n        whitelisting_period[msg.sender] = block.timestamp.add(60);\r\n        emit WhiteListed(msg.sender, whitelisting_period[msg.sender]);\r\n\r\n    }      \r\n      subscription_period[msg.sender] > block.timestamp ?\r\n            subscription_period[msg.sender] = subscription_period[msg.sender].add(60) :\r\n            subscription_period[msg.sender] = block.timestamp.add(60);\r\n            \r\n\r\n      distribute_equity();\r\n\r\n  }    \r\n\r\n      // Daily subscription\r\n  function get_single_day_subscription() public payable {\r\n\r\n      require(msg.value >= costOfOneDayMemmbership, \"not enough money sent\");\r\n      require(whitelisting_period[msg.sender] > block.timestamp, \"Not whitelisting_period, Please contact to Admin\");\r\n\r\n    assign_subscription(msg.sender, 1);\r\n\r\n  }     \r\n   \r\n      // Weekly subscription\r\n  function get_seven_days_subscription() public payable {\r\n\r\n      require(msg.value >= costOfSevenDaysMemmbership, \"not enough money sent\");\r\n      require(whitelisting_period[msg.sender] >block.timestamp, \"Not whitelisting_period, Please contact to Admin\");\r\n      \r\n      assign_subscription(msg.sender, 7);\r\n\r\n}\r\n\r\n      // Monthly subscription\r\n  function get_one_month_subscription() public payable {\r\n\r\n      require(msg.value >= costOfOneMonthMemmbership, \"not enough money sent\");\r\n      require(whitelisting_period[msg.sender] >block.timestamp, \"Not whitelisting_period, Please contact to Admin\");\r\n\r\n         assign_subscription(msg.sender, 30);\r\n\r\n}\r\n\r\n      // Six Monthl subscription\r\n  function get_six_month_subscription() public payable {\r\n\r\n      require(msg.value >= costOfSixMonthMemmbership, \"not enough money sent\");\r\n      require(whitelisting_period[msg.sender] > block.timestamp, \"Not whitelisting_period, Please contact to Admin\");\r\n\r\n      assign_subscription(msg.sender, 180);\r\n\r\n}\r\n\r\n\r\n  function is_whitelisted(address _address) public view returns (bool) {\r\n    return whitelisting_period[_address] > block.timestamp;\r\n  }\r\n  \r\n  function is_subscriber(address _address) public view returns (bool) {\r\n    return subscription_period[_address] > block.timestamp;\r\n  }\r\n   \r\n \r\n  function whitelist_users(address[] memory _users, uint256 _days) public onlyOwner {\r\n      \r\n    if(_users.length == 1){\r\n        whitelistUser(_users[0], _days);\r\n    }\r\n    else {\r\n        for(uint i = 0; i < _users.length; i++){\r\n            whitelistUser(_users[i], _days);\r\n        }\r\n    }\r\n  }\r\n  \r\n\r\n  function blacklist_users(address[] memory _users) public onlyOwner {\r\n      \r\n    if(_users.length == 1){\r\n        blacklistUser(_users[0]);\r\n    }\r\n    else {\r\n        for(uint i = 0; i < _users.length; i++){\r\n        blacklistUser(_users[i]);\r\n        }\r\n    }\r\n  }\r\n  \r\n  \r\n  function list_of_whitelisted_users() public view returns(address[] memory){\r\n    return whitelistedUsers;\r\n  }\r\n  \r\n  function refresh_list_of_whitelisted_users() public onlyOwner{\r\n      \r\n    address[] memory allWhitelistedUsers = whitelistedUsers;\r\n\r\n    whitelistedUsers = new address[](0);\r\n      \r\n    for(uint i = 0; i < allWhitelistedUsers.length; i++){\r\n        if( whitelisting_period[allWhitelistedUsers[i]] >  block.timestamp){\r\n            whitelistedUsers.push(allWhitelistedUsers[i]);\r\n        }\r\n    }\r\n  }\r\n  \r\n  \r\n  function total_balance_available() public view returns(uint256) {\r\n        return  address(this).balance;\r\n  }\r\n    \r\n  \r\n  function withdraw_total_amount() public onlyOwner {\r\n      distribute_equity();\r\n  }\r\n \r\n    \r\n  function distribute_equity() internal {\r\n        \r\n        uint256 totalamount =  address(this).balance;\r\n        require(totalamount > 0, \"balance is nill\");\r\n\r\n        address owner = owner();\r\n        \r\n        // distribute owner's 85% cut\r\n        uint256 ownersCut =  totalamount.mul(85).div(100);     \r\n        bool sentOwner = payable(owner).send(ownersCut);\r\n        require(sentOwner, \"Failed to send Ether\");\r\n        emit PaymentReleased(owner, ownersCut);\r\n        \r\n        // distribute remaining 15% to developer\r\n        uint developersCut = totalamount.sub(ownersCut);\r\n        bool sentDeveloper = payable(developer).send(developersCut);\r\n        require(sentDeveloper, \"Failed to send Ether\");\r\n        emit PaymentReleased(developer, developersCut);\r\n        \r\n    }\r\n  \r\n}",
  "sourcePath": "D:\\Fiverr\\rankingApp\\backend\\contracts\\RankNFT.sol",
  "compiler": {
    "name": "solc",
    "version": "0.8.7+commit.e28d00a7.Emscripten.clang"
  },
  "schemaVersion": "3.4.3",
  "updatedAt": "2021-09-26T11:02:48.330Z",
  "devdoc": {
    "kind": "dev",
    "methods": {
      "owner()": {
        "details": "Returns the address of the current owner."
      },
      "renounceOwnership()": {
        "details": "Leaves the contract without owner. It will not be possible to call `onlyOwner` functions anymore. Can only be called by the current owner. NOTE: Renouncing ownership will leave the contract without an owner, thereby removing any functionality that is only available to the owner."
      },
      "transferOwnership(address)": {
        "details": "Transfers ownership of the contract to a new account (`newOwner`). Can only be called by the current owner."
      }
    },
    "version": 1
  },
  "userdoc": {
    "kind": "user",
    "methods": {},
    "version": 1
  }
}