{
  "contractName": "RankNFT",
  "abi": [
    {
      "anonymous": false,
      "inputs": [
        {
          "indexed": false,
          "internalType": "address",
          "name": "account",
          "type": "address"
        }
      ],
      "name": "AmountChanged",
      "type": "event"
    },
    {
      "anonymous": false,
      "inputs": [
        {
          "indexed": false,
          "internalType": "address",
          "name": "account",
          "type": "address"
        }
      ],
      "name": "BlackListed",
      "type": "event"
    },
    {
      "anonymous": false,
      "inputs": [
        {
          "indexed": false,
          "internalType": "address",
          "name": "account",
          "type": "address"
        },
        {
          "indexed": false,
          "internalType": "uint256",
          "name": "duration",
          "type": "uint256"
        }
      ],
      "name": "MembershipAssigned",
      "type": "event"
    },
    {
      "anonymous": false,
      "inputs": [
        {
          "indexed": true,
          "internalType": "address",
          "name": "previousOwner",
          "type": "address"
        },
        {
          "indexed": true,
          "internalType": "address",
          "name": "newOwner",
          "type": "address"
        }
      ],
      "name": "OwnershipTransferred",
      "type": "event"
    },
    {
      "anonymous": false,
      "inputs": [
        {
          "indexed": false,
          "internalType": "address",
          "name": "from",
          "type": "address"
        },
        {
          "indexed": false,
          "internalType": "uint256",
          "name": "amount",
          "type": "uint256"
        }
      ],
      "name": "PaymentReceived",
      "type": "event"
    },
    {
      "anonymous": false,
      "inputs": [
        {
          "indexed": false,
          "internalType": "address",
          "name": "to",
          "type": "address"
        },
        {
          "indexed": false,
          "internalType": "uint256",
          "name": "amount",
          "type": "uint256"
        }
      ],
      "name": "PaymentReleased",
      "type": "event"
    },
    {
      "anonymous": false,
      "inputs": [
        {
          "indexed": false,
          "internalType": "address",
          "name": "account",
          "type": "address"
        },
        {
          "indexed": false,
          "internalType": "uint256",
          "name": "duration",
          "type": "uint256"
        }
      ],
      "name": "WhiteListed",
      "type": "event"
    },
    {
      "inputs": [],
      "name": "owner",
      "outputs": [
        {
          "internalType": "address",
          "name": "",
          "type": "address"
        }
      ],
      "stateMutability": "view",
      "type": "function",
      "constant": true
    },
    {
      "inputs": [],
      "name": "renounceOwnership",
      "outputs": [],
      "stateMutability": "nonpayable",
      "type": "function"
    },
    {
      "inputs": [
        {
          "internalType": "address",
          "name": "",
          "type": "address"
        }
      ],
      "name": "subscription_period",
      "outputs": [
        {
          "internalType": "uint256",
          "name": "",
          "type": "uint256"
        }
      ],
      "stateMutability": "view",
      "type": "function",
      "constant": true
    },
    {
      "inputs": [
        {
          "internalType": "address",
          "name": "newOwner",
          "type": "address"
        }
      ],
      "name": "transferOwnership",
      "outputs": [],
      "stateMutability": "nonpayable",
      "type": "function"
    },
    {
      "inputs": [
        {
          "internalType": "address",
          "name": "",
          "type": "address"
        }
      ],
      "name": "whitelisting_period",
      "outputs": [
        {
          "internalType": "uint256",
          "name": "",
          "type": "uint256"
        }
      ],
      "stateMutability": "view",
      "type": "function",
      "constant": true
    },
    {
      "inputs": [
        {
          "internalType": "uint256",
          "name": "_days",
          "type": "uint256"
        },
        {
          "internalType": "uint256",
          "name": "_amount",
          "type": "uint256"
        }
      ],
      "name": "set_cost_of_subscription",
      "outputs": [],
      "stateMutability": "nonpayable",
      "type": "function"
    },
    {
      "inputs": [
        {
          "internalType": "uint256",
          "name": "_days",
          "type": "uint256"
        }
      ],
      "name": "get_cost_of_subscription",
      "outputs": [
        {
          "internalType": "uint256",
          "name": "",
          "type": "uint256"
        }
      ],
      "stateMutability": "view",
      "type": "function",
      "constant": true
    },
    {
      "inputs": [
        {
          "internalType": "address[]",
          "name": "_users",
          "type": "address[]"
        },
        {
          "internalType": "uint256",
          "name": "_hours",
          "type": "uint256"
        }
      ],
      "name": "giveaway_subscription",
      "outputs": [],
      "stateMutability": "nonpayable",
      "type": "function"
    },
    {
      "inputs": [],
      "name": "get_single_day_subscription",
      "outputs": [],
      "stateMutability": "payable",
      "type": "function",
      "payable": true
    },
    {
      "inputs": [],
      "name": "get_seven_days_subscription",
      "outputs": [],
      "stateMutability": "payable",
      "type": "function",
      "payable": true
    },
    {
      "inputs": [],
      "name": "get_one_month_subscription",
      "outputs": [],
      "stateMutability": "payable",
      "type": "function",
      "payable": true
    },
    {
      "inputs": [],
      "name": "get_six_month_subscription",
      "outputs": [],
      "stateMutability": "payable",
      "type": "function",
      "payable": true
    },
    {
      "inputs": [
        {
          "internalType": "address",
          "name": "_address",
          "type": "address"
        }
      ],
      "name": "is_whitelisted",
      "outputs": [
        {
          "internalType": "bool",
          "name": "",
          "type": "bool"
        }
      ],
      "stateMutability": "view",
      "type": "function",
      "constant": true
    },
    {
      "inputs": [
        {
          "internalType": "address",
          "name": "_address",
          "type": "address"
        }
      ],
      "name": "is_subscriber",
      "outputs": [
        {
          "internalType": "bool",
          "name": "",
          "type": "bool"
        }
      ],
      "stateMutability": "view",
      "type": "function",
      "constant": true
    },
    {
      "inputs": [
        {
          "internalType": "address[]",
          "name": "_users",
          "type": "address[]"
        },
        {
          "internalType": "uint256",
          "name": "_days",
          "type": "uint256"
        }
      ],
      "name": "whitelist_users",
      "outputs": [],
      "stateMutability": "nonpayable",
      "type": "function"
    },
    {
      "inputs": [
        {
          "internalType": "address[]",
          "name": "_users",
          "type": "address[]"
        }
      ],
      "name": "blacklist_users",
      "outputs": [],
      "stateMutability": "nonpayable",
      "type": "function"
    },
    {
      "inputs": [],
      "name": "list_of_whitelisted_users",
      "outputs": [
        {
          "internalType": "address[]",
          "name": "",
          "type": "address[]"
        }
      ],
      "stateMutability": "view",
      "type": "function",
      "constant": true
    },
    {
      "inputs": [],
      "name": "refresh_list_of_whitelisted_users",
      "outputs": [],
      "stateMutability": "nonpayable",
      "type": "function"
    },
    {
      "inputs": [],
      "name": "total_balance_available",
      "outputs": [
        {
          "internalType": "uint256",
          "name": "",
          "type": "uint256"
        }
      ],
      "stateMutability": "view",
      "type": "function",
      "constant": true
    },
    {
      "inputs": [],
      "name": "withdraw_total_amount",
      "outputs": [],
      "stateMutability": "nonpayable",
      "type": "function"
    }
  ],
  "bytecode": "0x60806040526709b6e64a8ec60000600155670214e8348c4f000060025566d529ae9e86000060035566470de4df8200006004553480156200003f57600080fd5b5062000060620000546200006660201b60201c565b6200006e60201b60201c565b62000132565b600033905090565b60008060009054906101000a900473ffffffffffffffffffffffffffffffffffffffff169050816000806101000a81548173ffffffffffffffffffffffffffffffffffffffff021916908373ffffffffffffffffffffffffffffffffffffffff1602179055508173ffffffffffffffffffffffffffffffffffffffff168173ffffffffffffffffffffffffffffffffffffffff167f8be0079c531659141344cd1fd0a4f28419497f9722a3daafe3b4186f6b6457e060405160405180910390a35050565b612a6f80620001426000396000f3fe60806040526004361061011e5760003560e01c8063b88a9b28116100a0578063e7c33cdd11610064578063e7c33cdd1461032e578063e8972de014610357578063ef5ff20d14610394578063f2fde38b146103bd578063fe3912f4146103e65761011e565b8063b88a9b2814610290578063c45dca49146102b9578063de2acea4146102d0578063e4229788146102e7578063e6d31a3f146103245761011e565b80636bb29bbc116100e75780636bb29bbc146101a9578063715018a6146101d457806373fdea4c146101eb578063779ee628146102285780638da5cb5b146102655761011e565b80628937c5146101235780630a76b31f1461012d57806329a460a5146101375780633583a0bf146101415780633ce22cf01461017e575b600080fd5b61012b61040f565b005b6101356104e2565b005b61013f6105b5565b005b34801561014d57600080fd5b5061016860048036038101906101639190612157565b610688565b604051610175919061255b565b60405180910390f35b34801561018a57600080fd5b506101936106a0565b6040516101a0919061255b565b60405180910390f35b3480156101b557600080fd5b506101be6106a8565b6040516101cb919061245e565b60405180910390f35b3480156101e057600080fd5b506101e9610736565b005b3480156101f757600080fd5b50610212600480360381019061020d9190612157565b6107be565b60405161021f919061255b565b60405180910390f35b34801561023457600080fd5b5061024f600480360381019061024a9190612157565b6107d6565b60405161025c9190612480565b60405180910390f35b34801561027157600080fd5b5061027a610821565b604051610287919061241a565b60405180910390f35b34801561029c57600080fd5b506102b760048036038101906102b291906121cd565b61084a565b005b3480156102c557600080fd5b506102ce610943565b005b3480156102dc57600080fd5b506102e56109c9565b005b3480156102f357600080fd5b5061030e60048036038101906103099190612157565b610c32565b60405161031b9190612480565b60405180910390f35b61032c610c7d565b005b34801561033a57600080fd5b5061035560048036038101906103509190612256565b610d50565b005b34801561036357600080fd5b5061037e60048036038101906103799190612229565b610e42565b60405161038b919061255b565b60405180910390f35b3480156103a057600080fd5b506103bb60048036038101906103b691906121cd565b610ec8565b005b3480156103c957600080fd5b506103e460048036038101906103df9190612157565b6114cb565b005b3480156103f257600080fd5b5061040d60048036038101906104089190612184565b6115c3565b005b600354341015610454576040517f08c379a000000000000000000000000000000000000000000000000000000000815260040161044b9061253b565b60405180910390fd5b42600660003373ffffffffffffffffffffffffffffffffffffffff1673ffffffffffffffffffffffffffffffffffffffff16815260200190815260200160002054116104d5576040517f08c379a00000000000000000000000000000000000000000000000000000000081526004016104cc9061251b565b60405180910390fd5b6104e03360076116b9565b565b600254341015610527576040517f08c379a000000000000000000000000000000000000000000000000000000000815260040161051e9061253b565b60405180910390fd5b42600660003373ffffffffffffffffffffffffffffffffffffffff1673ffffffffffffffffffffffffffffffffffffffff16815260200190815260200160002054116105a8576040517f08c379a000000000000000000000000000000000000000000000000000000000815260040161059f9061251b565b60405180910390fd5b6105b333601e6116b9565b565b6004543410156105fa576040517f08c379a00000000000000000000000000000000000000000000000000000000081526004016105f19061253b565b60405180910390fd5b42600660003373ffffffffffffffffffffffffffffffffffffffff1673ffffffffffffffffffffffffffffffffffffffff168152602001908152602001600020541161067b576040517f08c379a00000000000000000000000000000000000000000000000000000000081526004016106729061251b565b60405180910390fd5b6106863360016116b9565b565b60066020528060005260406000206000915090505481565b600047905090565b6060600580548060200260200160405190810160405280929190818152602001828054801561072c57602002820191906000526020600020905b8160009054906101000a900473ffffffffffffffffffffffffffffffffffffffff1673ffffffffffffffffffffffffffffffffffffffff16815260200190600101908083116106e2575b5050505050905090565b61073e611921565b73ffffffffffffffffffffffffffffffffffffffff1661075c610821565b73ffffffffffffffffffffffffffffffffffffffff16146107b2576040517f08c379a00000000000000000000000000000000000000000000000000000000081526004016107a9906124fb565b60405180910390fd5b6107bc6000611929565b565b60076020528060005260406000206000915090505481565b600042600660008473ffffffffffffffffffffffffffffffffffffffff1673ffffffffffffffffffffffffffffffffffffffff16815260200190815260200160002054119050919050565b60008060009054906101000a900473ffffffffffffffffffffffffffffffffffffffff16905090565b610852611921565b73ffffffffffffffffffffffffffffffffffffffff16610870610821565b73ffffffffffffffffffffffffffffffffffffffff16146108c6576040517f08c379a00000000000000000000000000000000000000000000000000000000081526004016108bd906124fb565b60405180910390fd5b6001825114156108fa576108f5826000815181106108e7576108e6612846565b5b6020026020010151826119ed565b61093f565b60005b825181101561093d5761092a83828151811061091c5761091b612846565b5b6020026020010151836119ed565b80806109359061279f565b9150506108fd565b505b5050565b61094b611921565b73ffffffffffffffffffffffffffffffffffffffff16610969610821565b73ffffffffffffffffffffffffffffffffffffffff16146109bf576040517f08c379a00000000000000000000000000000000000000000000000000000000081526004016109b6906124fb565b60405180910390fd5b6109c7611ca6565b565b6109d1611921565b73ffffffffffffffffffffffffffffffffffffffff166109ef610821565b73ffffffffffffffffffffffffffffffffffffffff1614610a45576040517f08c379a0000000000000000000000000000000000000000000000000000000008152600401610a3c906124fb565b60405180910390fd5b60006005805480602002602001604051908101604052809291908181526020018280548015610ac957602002820191906000526020600020905b8160009054906101000a900473ffffffffffffffffffffffffffffffffffffffff1673ffffffffffffffffffffffffffffffffffffffff1681526020019060010190808311610a7f575b50505050509050600067ffffffffffffffff811115610aeb57610aea612875565b5b604051908082528060200260200182016040528015610b195781602001602082028036833780820191505090505b5060059080519060200190610b2f929190611fe8565b5060005b8151811015610c2e574260066000848481518110610b5457610b53612846565b5b602002602001015173ffffffffffffffffffffffffffffffffffffffff1673ffffffffffffffffffffffffffffffffffffffff168152602001908152602001600020541115610c1b576005828281518110610bb257610bb1612846565b5b60200260200101519080600181540180825580915050600190039060005260206000200160009091909190916101000a81548173ffffffffffffffffffffffffffffffffffffffff021916908373ffffffffffffffffffffffffffffffffffffffff1602179055505b8080610c269061279f565b915050610b33565b5050565b600042600760008473ffffffffffffffffffffffffffffffffffffffff1673ffffffffffffffffffffffffffffffffffffffff16815260200190815260200160002054119050919050565b600154341015610cc2576040517f08c379a0000000000000000000000000000000000000000000000000000000008152600401610cb99061253b565b60405180910390fd5b42600660003373ffffffffffffffffffffffffffffffffffffffff1673ffffffffffffffffffffffffffffffffffffffff1681526020019081526020016000205411610d43576040517f08c379a0000000000000000000000000000000000000000000000000000000008152600401610d3a9061251b565b60405180910390fd5b610d4e3360b46116b9565b565b610d58611921565b73ffffffffffffffffffffffffffffffffffffffff16610d76610821565b73ffffffffffffffffffffffffffffffffffffffff1614610dcc576040517f08c379a0000000000000000000000000000000000000000000000000000000008152600401610dc3906124fb565b60405180910390fd5b6001821480610ddb5750600782145b80610de65750601e82145b80610df1575060b482145b610dfa57600080fd5b6001821415610e0b57806004819055505b6007821415610e1c57806003819055505b601e821415610e2d57806002819055505b60b4821415610e3e57806001819055505b5050565b60006001821480610e535750600782145b80610e5e5750601e82145b80610e69575060b482145b610e7257600080fd5b6001821415610e85576004549050610ec3565b6007821415610e98576003549050610ec3565b601e821415610eab576002549050610ec3565b60b4821415610ebe576001549050610ec3565b600090505b919050565b610ed0611921565b73ffffffffffffffffffffffffffffffffffffffff16610eee610821565b73ffffffffffffffffffffffffffffffffffffffff1614610f44576040517f08c379a0000000000000000000000000000000000000000000000000000000008152600401610f3b906124fb565b60405180910390fd5b60005b82518110156114c6574260066000858481518110610f6857610f67612846565b5b602002602001015173ffffffffffffffffffffffffffffffffffffffff1673ffffffffffffffffffffffffffffffffffffffff16815260200190815260200160002054111561113f57611031610fc983610e10611ed090919063ffffffff16565b60066000868581518110610fe057610fdf612846565b5b602002602001015173ffffffffffffffffffffffffffffffffffffffff1673ffffffffffffffffffffffffffffffffffffffff16815260200190815260200160002054611ee690919063ffffffff16565b6006600085848151811061104857611047612846565b5b602002602001015173ffffffffffffffffffffffffffffffffffffffff1673ffffffffffffffffffffffffffffffffffffffff168152602001908152602001600020819055507fe0d7b08efc3ef6fb0431d2ada2315c95801655a6f35ba4346debea896c9ab4098382815181106110c2576110c1612846565b5b6020026020010151600660008685815181106110e1576110e0612846565b5b602002602001015173ffffffffffffffffffffffffffffffffffffffff1673ffffffffffffffffffffffffffffffffffffffff16815260200190815260200160002054604051611132929190612435565b60405180910390a16112ed565b600583828151811061115457611153612846565b5b60200260200101519080600181540180825580915050600190039060005260206000200160009091909190916101000a81548173ffffffffffffffffffffffffffffffffffffffff021916908373ffffffffffffffffffffffffffffffffffffffff1602179055506111e36111d483610e10611ed090919063ffffffff16565b42611ee690919063ffffffff16565b600660008584815181106111fa576111f9612846565b5b602002602001015173ffffffffffffffffffffffffffffffffffffffff1673ffffffffffffffffffffffffffffffffffffffff168152602001908152602001600020819055507fe0d7b08efc3ef6fb0431d2ada2315c95801655a6f35ba4346debea896c9ab40983828151811061127457611273612846565b5b60200260200101516006600086858151811061129357611292612846565b5b602002602001015173ffffffffffffffffffffffffffffffffffffffff1673ffffffffffffffffffffffffffffffffffffffff168152602001908152602001600020546040516112e4929190612435565b60405180910390a15b426007600085848151811061130557611304612846565b5b602002602001015173ffffffffffffffffffffffffffffffffffffffff1673ffffffffffffffffffffffffffffffffffffffff16815260200190815260200160002054116113d55761137461136583610e10611ed090919063ffffffff16565b42611ee690919063ffffffff16565b6007600085848151811061138b5761138a612846565b5b602002602001015173ffffffffffffffffffffffffffffffffffffffff1673ffffffffffffffffffffffffffffffffffffffff1681526020019081526020016000208190556114b2565b6114556113ed83610e10611ed090919063ffffffff16565b6007600086858151811061140457611403612846565b5b602002602001015173ffffffffffffffffffffffffffffffffffffffff1673ffffffffffffffffffffffffffffffffffffffff16815260200190815260200160002054611ee690919063ffffffff16565b6007600085848151811061146c5761146b612846565b5b602002602001015173ffffffffffffffffffffffffffffffffffffffff1673ffffffffffffffffffffffffffffffffffffffff1681526020019081526020016000208190555b5080806114be9061279f565b915050610f47565b505050565b6114d3611921565b73ffffffffffffffffffffffffffffffffffffffff166114f1610821565b73ffffffffffffffffffffffffffffffffffffffff1614611547576040517f08c379a000000000000000000000000000000000000000000000000000000000815260040161153e906124fb565b60405180910390fd5b600073ffffffffffffffffffffffffffffffffffffffff168173ffffffffffffffffffffffffffffffffffffffff1614156115b7576040517f08c379a00000000000000000000000000000000000000000000000000000000081526004016115ae9061249b565b60405180910390fd5b6115c081611929565b50565b6115cb611921565b73ffffffffffffffffffffffffffffffffffffffff166115e9610821565b73ffffffffffffffffffffffffffffffffffffffff161461163f576040517f08c379a0000000000000000000000000000000000000000000000000000000008152600401611636906124fb565b60405180910390fd5b6001815114156116725761166d816000815181106116605761165f612846565b5b6020026020010151611efc565b6116b6565b60005b81518110156116b4576116a182828151811061169457611693612846565b5b6020026020010151611efc565b80806116ac9061279f565b915050611675565b505b50565b6116c382826119ed565b42600760008473ffffffffffffffffffffffffffffffffffffffff1673ffffffffffffffffffffffffffffffffffffffff168152602001908152602001600020541115611831576117716117238262015180611ed090919063ffffffff16565b600760008573ffffffffffffffffffffffffffffffffffffffff1673ffffffffffffffffffffffffffffffffffffffff16815260200190815260200160002054611ee690919063ffffffff16565b600760008473ffffffffffffffffffffffffffffffffffffffff1673ffffffffffffffffffffffffffffffffffffffff168152602001908152602001600020819055507f64d66f1ede5d6edc9563a68db3244db6e42c247b4dd4813ee2f2606c5770e2e982600760008573ffffffffffffffffffffffffffffffffffffffff1673ffffffffffffffffffffffffffffffffffffffff16815260200190815260200160002054604051611824929190612435565b60405180910390a1611915565b61185961184a8262015180611ed090919063ffffffff16565b42611ee690919063ffffffff16565b600760008473ffffffffffffffffffffffffffffffffffffffff1673ffffffffffffffffffffffffffffffffffffffff168152602001908152602001600020819055507f64d66f1ede5d6edc9563a68db3244db6e42c247b4dd4813ee2f2606c5770e2e982600760008573ffffffffffffffffffffffffffffffffffffffff1673ffffffffffffffffffffffffffffffffffffffff1681526020019081526020016000205460405161190c929190612435565b60405180910390a15b61191d611ca6565b5050565b600033905090565b60008060009054906101000a900473ffffffffffffffffffffffffffffffffffffffff169050816000806101000a81548173ffffffffffffffffffffffffffffffffffffffff021916908373ffffffffffffffffffffffffffffffffffffffff1602179055508173ffffffffffffffffffffffffffffffffffffffff168173ffffffffffffffffffffffffffffffffffffffff167f8be0079c531659141344cd1fd0a4f28419497f9722a3daafe3b4186f6b6457e060405160405180910390a35050565b42600660008473ffffffffffffffffffffffffffffffffffffffff1673ffffffffffffffffffffffffffffffffffffffff168152602001908152602001600020541115611b5b57611a9b611a4d8262015180611ed090919063ffffffff16565b600660008573ffffffffffffffffffffffffffffffffffffffff1673ffffffffffffffffffffffffffffffffffffffff16815260200190815260200160002054611ee690919063ffffffff16565b600660008473ffffffffffffffffffffffffffffffffffffffff1673ffffffffffffffffffffffffffffffffffffffff168152602001908152602001600020819055507fe0d7b08efc3ef6fb0431d2ada2315c95801655a6f35ba4346debea896c9ab40982600660008573ffffffffffffffffffffffffffffffffffffffff1673ffffffffffffffffffffffffffffffffffffffff16815260200190815260200160002054604051611b4e929190612435565b60405180910390a1611ca2565b6005829080600181540180825580915050600190039060005260206000200160009091909190916101000a81548173ffffffffffffffffffffffffffffffffffffffff021916908373ffffffffffffffffffffffffffffffffffffffff160217905550611be6611bd78262015180611ed090919063ffffffff16565b42611ee690919063ffffffff16565b600660008473ffffffffffffffffffffffffffffffffffffffff1673ffffffffffffffffffffffffffffffffffffffff168152602001908152602001600020819055507fe0d7b08efc3ef6fb0431d2ada2315c95801655a6f35ba4346debea896c9ab40982600660008573ffffffffffffffffffffffffffffffffffffffff1673ffffffffffffffffffffffffffffffffffffffff16815260200190815260200160002054604051611c99929190612435565b60405180910390a15b5050565b600047905060008111611cee576040517f08c379a0000000000000000000000000000000000000000000000000000000008152600401611ce5906124db565b60405180910390fd5b6000611cf8610821565b90506000611d236064611d15605586611ed090919063ffffffff16565b611fbc90919063ffffffff16565b905060008273ffffffffffffffffffffffffffffffffffffffff166108fc839081150290604051600060405180830381858888f19350505050905080611d9e576040517f08c379a0000000000000000000000000000000000000000000000000000000008152600401611d95906124bb565b60405180910390fd5b7fdf20fd1e76bc69d672e4814fafb2c449bba3a5369d8359adf9e05e6fde87b0568383604051611dcf929190612435565b60405180910390a16000611dec8386611fd290919063ffffffff16565b905060007331d165f1123ad9166cbfac2b11d2f377e824b08b73ffffffffffffffffffffffffffffffffffffffff166108fc839081150290604051600060405180830381858888f19350505050905080611e7b576040517f08c379a0000000000000000000000000000000000000000000000000000000008152600401611e72906124bb565b60405180910390fd5b7fdf20fd1e76bc69d672e4814fafb2c449bba3a5369d8359adf9e05e6fde87b0567331d165f1123ad9166cbfac2b11d2f377e824b08b83604051611ec0929190612435565b60405180910390a1505050505050565b60008183611ede9190612698565b905092915050565b60008183611ef49190612611565b905092915050565b600660008273ffffffffffffffffffffffffffffffffffffffff1673ffffffffffffffffffffffffffffffffffffffff16815260200190815260200160002060009055600760008273ffffffffffffffffffffffffffffffffffffffff1673ffffffffffffffffffffffffffffffffffffffff168152602001908152602001600020600090557f7fd26be6fc92aff63f1f4409b2b2ddeb272a888031d7f55ec830485ec619418681604051611fb1919061241a565b60405180910390a150565b60008183611fca9190612667565b905092915050565b60008183611fe091906126f2565b905092915050565b828054828255906000526020600020908101928215612061579160200282015b828111156120605782518260006101000a81548173ffffffffffffffffffffffffffffffffffffffff021916908373ffffffffffffffffffffffffffffffffffffffff16021790555091602001919060010190612008565b5b50905061206e9190612072565b5090565b5b8082111561208b576000816000905550600101612073565b5090565b60006120a261209d8461259b565b612576565b905080838252602082019050828560208602820111156120c5576120c46128a9565b5b60005b858110156120f557816120db88826120ff565b8452602084019350602083019250506001810190506120c8565b5050509392505050565b60008135905061210e81612a0b565b92915050565b600082601f830112612129576121286128a4565b5b813561213984826020860161208f565b91505092915050565b60008135905061215181612a22565b92915050565b60006020828403121561216d5761216c6128b3565b5b600061217b848285016120ff565b91505092915050565b60006020828403121561219a576121996128b3565b5b600082013567ffffffffffffffff8111156121b8576121b76128ae565b5b6121c484828501612114565b91505092915050565b600080604083850312156121e4576121e36128b3565b5b600083013567ffffffffffffffff811115612202576122016128ae565b5b61220e85828601612114565b925050602061221f85828601612142565b9150509250929050565b60006020828403121561223f5761223e6128b3565b5b600061224d84828501612142565b91505092915050565b6000806040838503121561226d5761226c6128b3565b5b600061227b85828601612142565b925050602061228c85828601612142565b9150509250929050565b60006122a283836122ae565b60208301905092915050565b6122b781612726565b82525050565b6122c681612726565b82525050565b60006122d7826125d7565b6122e181856125ef565b93506122ec836125c7565b8060005b8381101561231d5781516123048882612296565b975061230f836125e2565b9250506001810190506122f0565b5085935050505092915050565b61233381612738565b82525050565b6000612346602683612600565b9150612351826128c9565b604082019050919050565b6000612369601483612600565b915061237482612918565b602082019050919050565b600061238c600f83612600565b915061239782612941565b602082019050919050565b60006123af602083612600565b91506123ba8261296a565b602082019050919050565b60006123d2603083612600565b91506123dd82612993565b604082019050919050565b60006123f5601583612600565b9150612400826129e2565b602082019050919050565b61241481612764565b82525050565b600060208201905061242f60008301846122bd565b92915050565b600060408201905061244a60008301856122bd565b612457602083018461240b565b9392505050565b6000602082019050818103600083015261247881846122cc565b905092915050565b6000602082019050612495600083018461232a565b92915050565b600060208201905081810360008301526124b481612339565b9050919050565b600060208201905081810360008301526124d48161235c565b9050919050565b600060208201905081810360008301526124f48161237f565b9050919050565b60006020820190508181036000830152612514816123a2565b9050919050565b60006020820190508181036000830152612534816123c5565b9050919050565b60006020820190508181036000830152612554816123e8565b9050919050565b6000602082019050612570600083018461240b565b92915050565b6000612580612591565b905061258c828261276e565b919050565b6000604051905090565b600067ffffffffffffffff8211156125b6576125b5612875565b5b602082029050602081019050919050565b6000819050602082019050919050565b600081519050919050565b6000602082019050919050565b600082825260208201905092915050565b600082825260208201905092915050565b600061261c82612764565b915061262783612764565b9250827fffffffffffffffffffffffffffffffffffffffffffffffffffffffffffffffff0382111561265c5761265b6127e8565b5b828201905092915050565b600061267282612764565b915061267d83612764565b92508261268d5761268c612817565b5b828204905092915050565b60006126a382612764565b91506126ae83612764565b9250817fffffffffffffffffffffffffffffffffffffffffffffffffffffffffffffffff04831182151516156126e7576126e66127e8565b5b828202905092915050565b60006126fd82612764565b915061270883612764565b92508282101561271b5761271a6127e8565b5b828203905092915050565b600061273182612744565b9050919050565b60008115159050919050565b600073ffffffffffffffffffffffffffffffffffffffff82169050919050565b6000819050919050565b612777826128b8565b810181811067ffffffffffffffff8211171561279657612795612875565b5b80604052505050565b60006127aa82612764565b91507fffffffffffffffffffffffffffffffffffffffffffffffffffffffffffffffff8214156127dd576127dc6127e8565b5b600182019050919050565b7f4e487b7100000000000000000000000000000000000000000000000000000000600052601160045260246000fd5b7f4e487b7100000000000000000000000000000000000000000000000000000000600052601260045260246000fd5b7f4e487b7100000000000000000000000000000000000000000000000000000000600052603260045260246000fd5b7f4e487b7100000000000000000000000000000000000000000000000000000000600052604160045260246000fd5b600080fd5b600080fd5b600080fd5b600080fd5b6000601f19601f8301169050919050565b7f4f776e61626c653a206e6577206f776e657220697320746865207a65726f206160008201527f6464726573730000000000000000000000000000000000000000000000000000602082015250565b7f4661696c656420746f2073656e64204574686572000000000000000000000000600082015250565b7f62616c616e6365206973206e696c6c0000000000000000000000000000000000600082015250565b7f4f776e61626c653a2063616c6c6572206973206e6f7420746865206f776e6572600082015250565b7f4e6f742077686974656c697374696e675f706572696f642c20506c656173652060008201527f636f6e7461637420746f2041646d696e00000000000000000000000000000000602082015250565b7f6e6f7420656e6f756768206d6f6e65792073656e740000000000000000000000600082015250565b612a1481612726565b8114612a1f57600080fd5b50565b612a2b81612764565b8114612a3657600080fd5b5056fea264697066735822122090474fa8b1a036894ba93fc1345b2b44536fdd484b4cb0142865d416350a5ad264736f6c63430008070033",
  "immutableReferences": {},
  "source": "// SPDX-License-Identifier: GPL-3.0\r\n\r\n// Created by Al Razzaq\r\n// Name of the project\r\n\r\npragma solidity ^0.8.0;\r\n\r\n\r\nimport \"@openzeppelin/contracts/utils/math/SafeMath.sol\";\r\nimport \"@openzeppelin/contracts/access/Ownable.sol\";\r\n\r\n\r\ncontract RankNFT is Ownable {\r\n    \r\n    using SafeMath for uint256;\r\n  \r\n//*********** Variables *****************\r\n\r\n  uint constant DAY_IN_SECONDS = 86400;\r\n  uint constant MINUTES_IN_SECONDS = 3600;\r\n  address constant private developer = 0x31D165F1123ad9166cBFAC2b11D2F377e824b08B;\r\n  \r\n  uint private costOfSixMonthMemmbership =  0.7 ether;\r\n  uint private costOfOneMonthMemmbership =  0.15 ether;\r\n  uint private costOfSevenDaysMemmbership =  0.06 ether;\r\n  uint private costOfOneDayMemmbership =  0.02 ether;\r\n  \r\n  address[] private whitelistedUsers;\r\n\r\n\r\n//*********** Mappings *****************\r\n\r\n  mapping(address => uint256) public whitelisting_period;\r\n  mapping(address => uint256) public subscription_period;\r\n  \r\n\r\n//*********** Events *****************\r\n  event AmountChanged(address account);\r\n  event MembershipAssigned(address account, uint duration);\r\n\r\n  event WhiteListed(address account, uint duration);\r\n  event BlackListed(address account);\r\n  event PaymentReleased(address to, uint256 amount);\r\n  event PaymentReceived(address from, uint256 amount);\r\n  \r\n  \r\n\r\n  function set_cost_of_subscription(uint256 _days, uint256 _amount) public onlyOwner{\r\n      require(_days == 1 || _days == 7 || _days == 30 || _days == 180);\r\n      \r\n      if(_days == 1){\r\n        costOfOneDayMemmbership = _amount;\r\n      }\r\n      if(_days == 7){\r\n        costOfSevenDaysMemmbership = _amount;\r\n      }\r\n      if(_days == 30){\r\n        costOfOneMonthMemmbership = _amount;\r\n      }\r\n      if(_days == 180){\r\n        costOfSixMonthMemmbership = _amount;\r\n      }\r\n      \r\n  }\r\n  \r\n  function get_cost_of_subscription(uint256 _days) view public returns(uint) {\r\n      require(_days == 1 || _days == 7 || _days == 30 || _days == 180);\r\n      \r\n      if(_days == 1){\r\n        return costOfOneDayMemmbership;\r\n      }\r\n      if(_days == 7){\r\n        return costOfSevenDaysMemmbership;\r\n      }\r\n      if(_days == 30){\r\n        return costOfOneMonthMemmbership;\r\n      }\r\n      if(_days == 180){\r\n        return costOfSixMonthMemmbership;\r\n      }\r\n      else {\r\n          return 0;\r\n      }\r\n\r\n  }\r\n \r\n\r\n  function assign_subscription(address _user, uint256 _days) internal {\r\n\r\n    whitelistUser(_user, _days);\r\n\r\n    if(subscription_period[_user] > block.timestamp){\r\n        subscription_period[_user] = subscription_period[_user].add(DAY_IN_SECONDS.mul(_days));\r\n        emit MembershipAssigned(_user, subscription_period[_user]);\r\n    }\r\n    else{\r\n        subscription_period[_user] = block.timestamp.add(DAY_IN_SECONDS.mul(_days));\r\n        emit MembershipAssigned(_user, subscription_period[_user]);\r\n\r\n    }\r\n\r\n   distribute_equity();\r\n            \r\n}\r\n\r\n  function whitelistUser(address _user, uint256 _days) internal {\r\n\r\n    if(whitelisting_period[_user] > block.timestamp){\r\n        whitelisting_period[_user] = whitelisting_period[_user].add(DAY_IN_SECONDS.mul(_days));\r\n        emit WhiteListed(_user, whitelisting_period[_user]);\r\n    }\r\n    else {\r\n        whitelistedUsers.push(_user);\r\n        whitelisting_period[_user] = block.timestamp.add(DAY_IN_SECONDS.mul(_days));\r\n        emit WhiteListed(_user, whitelisting_period[_user]);\r\n\r\n    }\r\n    \r\n  }\r\n\r\n  function blacklistUser(address _user) internal {\r\n    delete whitelisting_period[_user];\r\n    delete subscription_period[_user];\r\n    emit BlackListed(_user);\r\n  }\r\n\r\n      // free one hour subscription\r\n  function giveaway_subscription(address[] memory _users, uint _hours) public onlyOwner {\r\n    \r\n    for(uint i = 0; i < _users.length; i++){\r\n\r\n        if(whitelisting_period[_users[i]] > block.timestamp){\r\n            whitelisting_period[_users[i]] = whitelisting_period[_users[i]].add(MINUTES_IN_SECONDS.mul(_hours));\r\n            emit WhiteListed(_users[i], whitelisting_period[_users[i]]);\r\n        }\r\n        else {\r\n            whitelistedUsers.push(_users[i]);\r\n            whitelisting_period[_users[i]] = block.timestamp.add(MINUTES_IN_SECONDS.mul(_hours));\r\n            emit WhiteListed(_users[i], whitelisting_period[_users[i]]);\r\n    \r\n        }      \r\n          subscription_period[_users[i]] > block.timestamp ?\r\n                subscription_period[_users[i]] = subscription_period[_users[i]].add(MINUTES_IN_SECONDS.mul(_hours)) :\r\n                subscription_period[_users[i]] = block.timestamp.add(MINUTES_IN_SECONDS.mul(_hours));\r\n                \r\n    }\r\n    \r\n  }\r\n\r\n\r\n\r\n      // Daily subscription\r\n  function get_single_day_subscription() public payable {\r\n\r\n      require(msg.value >= costOfOneDayMemmbership, \"not enough money sent\");\r\n      require(whitelisting_period[msg.sender] > block.timestamp, \"Not whitelisting_period, Please contact to Admin\");\r\n\r\n    assign_subscription(msg.sender, 1);\r\n\r\n  }     \r\n   \r\n      // Weekly subscription\r\n  function get_seven_days_subscription() public payable {\r\n\r\n      require(msg.value >= costOfSevenDaysMemmbership, \"not enough money sent\");\r\n      require(whitelisting_period[msg.sender] >block.timestamp, \"Not whitelisting_period, Please contact to Admin\");\r\n      \r\n      assign_subscription(msg.sender, 7);\r\n\r\n}\r\n\r\n      // Monthly subscription\r\n  function get_one_month_subscription() public payable {\r\n\r\n      require(msg.value >= costOfOneMonthMemmbership, \"not enough money sent\");\r\n      require(whitelisting_period[msg.sender] >block.timestamp, \"Not whitelisting_period, Please contact to Admin\");\r\n\r\n         assign_subscription(msg.sender, 30);\r\n\r\n}\r\n\r\n      // Six Monthl subscription\r\n  function get_six_month_subscription() public payable {\r\n\r\n      require(msg.value >= costOfSixMonthMemmbership, \"not enough money sent\");\r\n      require(whitelisting_period[msg.sender] > block.timestamp, \"Not whitelisting_period, Please contact to Admin\");\r\n\r\n      assign_subscription(msg.sender, 180);\r\n\r\n}\r\n\r\n\r\n  function is_whitelisted(address _address) public view returns (bool) {\r\n    return whitelisting_period[_address] > block.timestamp;\r\n  }\r\n  \r\n  function is_subscriber(address _address) public view returns (bool) {\r\n    return subscription_period[_address] > block.timestamp;\r\n  }\r\n   \r\n \r\n  function whitelist_users(address[] memory _users, uint256 _days) public onlyOwner {\r\n      \r\n    if(_users.length == 1){\r\n        whitelistUser(_users[0], _days);\r\n    }\r\n    else {\r\n        for(uint i = 0; i < _users.length; i++){\r\n            whitelistUser(_users[i], _days);\r\n        }\r\n    }\r\n  }\r\n  \r\n\r\n  function blacklist_users(address[] memory _users) public onlyOwner {\r\n      \r\n    if(_users.length == 1){\r\n        blacklistUser(_users[0]);\r\n    }\r\n    else {\r\n        for(uint i = 0; i < _users.length; i++){\r\n        blacklistUser(_users[i]);\r\n        }\r\n    }\r\n  }\r\n  \r\n  \r\n  function list_of_whitelisted_users() public view returns(address[] memory){\r\n    return whitelistedUsers;\r\n  }\r\n  \r\n  function refresh_list_of_whitelisted_users() public onlyOwner{\r\n      \r\n    address[] memory allWhitelistedUsers = whitelistedUsers;\r\n\r\n    whitelistedUsers = new address[](0);\r\n      \r\n    for(uint i = 0; i < allWhitelistedUsers.length; i++){\r\n        if( whitelisting_period[allWhitelistedUsers[i]] >  block.timestamp){\r\n            whitelistedUsers.push(allWhitelistedUsers[i]);\r\n        }\r\n    }\r\n  }\r\n  \r\n  \r\n  function total_balance_available() public view returns(uint256) {\r\n        return  address(this).balance;\r\n  }\r\n    \r\n  \r\n  function withdraw_total_amount() public onlyOwner {\r\n      distribute_equity();\r\n  }\r\n \r\n    \r\n  function distribute_equity() internal {\r\n        \r\n        uint256 totalamount =  address(this).balance;\r\n        require(totalamount > 0, \"balance is nill\");\r\n\r\n        address owner = owner();\r\n        \r\n        // distribute owner's 85% cut\r\n        uint256 ownersCut =  totalamount.mul(85).div(100);     \r\n        bool sentOwner = payable(owner).send(ownersCut);\r\n        require(sentOwner, \"Failed to send Ether\");\r\n        emit PaymentReleased(owner, ownersCut);\r\n        \r\n        // distribute remaining 15% to developer\r\n        uint developersCut = totalamount.sub(ownersCut);\r\n        bool sentDeveloper = payable(developer).send(developersCut);\r\n        require(sentDeveloper, \"Failed to send Ether\");\r\n        emit PaymentReleased(developer, developersCut);\r\n        \r\n    }\r\n  \r\n}",
  "sourcePath": "D:\\Fiverr\\rankingApp\\backend\\contracts\\RankNFT.sol",
  "compiler": {
    "name": "solc",
    "version": "0.8.7+commit.e28d00a7.Emscripten.clang"
  },
  "schemaVersion": "3.4.3",
  "updatedAt": "2021-09-27T12:41:11.991Z",
  "networkType": "ethereum",
  "devdoc": {
    "kind": "dev",
    "methods": {
      "owner()": {
        "details": "Returns the address of the current owner."
      },
      "renounceOwnership()": {
        "details": "Leaves the contract without owner. It will not be possible to call `onlyOwner` functions anymore. Can only be called by the current owner. NOTE: Renouncing ownership will leave the contract without an owner, thereby removing any functionality that is only available to the owner."
      },
      "transferOwnership(address)": {
        "details": "Transfers ownership of the contract to a new account (`newOwner`). Can only be called by the current owner."
      }
    },
    "version": 1
  },
  "userdoc": {
    "kind": "user",
    "methods": {},
    "version": 1
  }
}